:1000000033C000000C94270A0C94B30A4AC00000C5
:1000100048C0000046C0000044C0000042C00000CC
:1000200040C000003EC000003CC000000C943309FA
:1000300038C0000036C0000034C0000032C00000EC
:1000400030C000002EC000002CC000002AC00000FC
:1000500028C0000026C0000024C0000022C000000C
:1000600020C000001EC0000011241FBECFEFD8E04A
:10007000DEBFCDBF13E0A0E0B1E0ECEBF9E102C0E0
:1000800005900D92A838B107D9F723E0A8E8B3E0AE
:1000900001C01D92A639B207E1F70E94F10A0C9443
:1000A000DC0CAECFEAE7F0E0808187688083ECE784
:1000B000F0E08081806480830895EAE7F0E0808149
:1000C00080648083808186FDFDCF8091780090914F
:1000D00079000895EAE7F0E0808187688083ECE7A3
:1000E000F0E08081816480830895EAE7F0E0808118
:1000F00080648083808186FDFDCF8091780090911F
:1001000079000895579A5F985F9A2FEF89E698E1F2
:10011000215080409040E1F700C000001BB82FEF55
:1001200089E698E1215080409040E1F700C000004E
:100130000895CF9384B18C6284B985B1837D85B9EC
:100140002B9AC9E12D9A2FEF89E698E12150804042
:100150009040E1F700C0000015B82FEF89E698E164
:10016000215080409040E1F700C000002A9A2FEF14
:1001700089E698E1215080409040E1F700C00000FE
:100180002A982FEF89E698E1215080409040E1F7CE
:1001900000C00000B7DFC150A9F6CF910895259A9D
:1001A00090E0181619062CF520E030E040E25FEFF1
:1001B00069E678E1515060407040E1F700C000000E
:1001C00045B95FEF63ED70E3515060407040E1F777
:1001D00000C0000015B85FEF69E678E1515060405B
:1001E0007040E1F700C000002F5F3F4F281739072C
:1001F000F1F6089590E0181619062CF520E030E08D
:1002000042E05FEF65EA7EE0515060407040E1F708
:1002100000C0000045B95FEF65EA7EE051506040E4
:100220007040E1F700C0000015B85FEF65EA7EE0BE
:10023000515060407040E1F700C000002F5F3F4F19
:1002400028173907F1F6089590E0181619062CF5CD
:1002500020E030E041E05FEF63EC79E05150604036
:100260007040E1F700C0000045B95FEF63EC79E052
:10027000515060407040E1F700C0000015B85FEFDA
:1002800063EC79E0515060407040E1F700C000003D
:100290002F5F3F4F28173907F1F6089590E01816A1
:1002A00019069CF420E030E040E84BB95FEF69EFBD
:1002B00070E0515060407040E1F700C000001BB892
:1002C0002F5F3F4F2817390781F7089583E0BCCF90
:1002D000089586E0B9CF089589E0B6CF089584EAFD
:1002E0008093BC00ECEBF0E080818823ECF78091F8
:1002F000B900887F883009F0E9CF089588E78093B6
:10030000BB0084E88093BC00ECEBF0E080818823A4
:10031000ECF78091B900887F883109F0DACF089531
:1003200080E88093BB0084E88093BC00ECEBF0E0B5
:1003300080818823ECF78091B900887F883209F0AA
:10034000CBCF089580EC8093BB0084E88093BC0001
:10035000ECEBF0E080818823ECF78091B900887F96
:10036000883209F0B9CF0895809134028093BB00A0
:1003700084E88093BC00ECEBF0E080818823ECF70C
:100380008091B900887F883209F0A6CF0895CF9375
:10039000DF93D82FC62FC4DF82E280933402E4DFDC
:1003A000BFDFD0933402E0DFBBDFC0933402DCDF79
:1003B000DF91CF910895CF93DF93D82FC62FB0DF71
:1003C00081E280933402D0DFABDFD0933402CCDF04
:1003D000A7DFC0933402C8DFDF91CF910895A0DF7B
:1003E0008FE780933402C0DF9BDF80E2809334028A
:1003F000BBDF96DF10923402B7DF67E080E0C7DF33
:100400006FE780E0D8DF8CDF80E480933402ACDFDC
:1004100087DF84EA80933402A7DF82DF86EA809355
:100420003402A2DF2FEF82E191E021508040904022
:10043000E1F700C0000008951F93CF93DF9390E091
:10044000EC01CC0FDD1FC80FD91FCC0FDD1FCF5F14
:10045000DE4F10E077DF89918093340285DF1F5FE4
:100460001630C1F781E01ADFDF91CF911F91089517
:10047000AF92BF92CF92DF92EF92FF920F931F93B2
:10048000CF93DF93CDB7DEB7CD5AD1090FB6F8942D
:10049000DEBF0FBECDBF26E6E5E3F2E0DE0111963A
:1004A00001900D922A95E1F723E3EBE9F2E0DE01FA
:1004B000A959BF4F01900D922A95E1F7FE01E6562A
:1004C000FF4F2AE0DF01322F1D923A95E9F73A9665
:1004D000DF011D922A95E9F729813A81281739070A
:1004E00048F0E15AF10911E02191319128173907BB
:1004F00048F401C010E0EFE9FFE03197F1F700C0E8
:10050000000003C01F5F133379F780913302682F17
:100510003EDF80913302982F990F6AE5890F4BDFF8
:10052000E12EF12CE7E6F0E0EC0FFD1FEE0DFF1DD4
:100530001081912F9095991F9927991F82E3891B0C
:100540007BDF4AE0BE0166567F4F812F110F990B6A
:100550000E94A90C8E0106561F4F6801F3E0CF0ED2
:10056000D11CD8018D918D0190ED980F9A3010F427
:100570008F5201C080E360DF0C151D0591F780E309
:100580005BDF80E359DF80913302682F00DF8091C9
:100590003302982F990F890F64E6855E0CDF6E0198
:1005A000B4EACB0ED11C5601E4E0AE0EB11C8701BB
:1005B000000F111F81E090E08C0F9D1F080F191F85
:1005C0004AE0BE016C557F4FD8018D919C910E94ED
:1005D000A90CF60181916F018F522EDFCA14DB0442
:1005E00079F780E329DF80E327DFC355DF4F0FB6BC
:1005F000F894DEBF0FBECDBFDF91CF911F910F9159
:10060000FF90EF90DF90CF90BF90AF900895DF9272
:10061000EF92FF920F931F93CF93DF93CDB7DEB787
:1006200027970FB6F894DEBF0FBECDBF6FE785E505
:10063000C2DE67E087E0ABDE87E0ECE2F3E0DE01FC
:10064000119601900D928A95E1F789818F527E0172
:1006500092E0E90EF11C10E001E0D12C14C0F7018A
:1006600081917F0120ED280F902F2A3008F49D2DD5
:10067000992331F0902F163008F49D2D911102C06E
:100680008F5201C080E3D8DE1F5F173041F72796F5
:100690000FB6F894DEBF0FBECDBFDF91CF911F9193
:1006A0000F91FF90EF90DF9008950F931F93CF93DA
:1006B000DF9395DE80918E0381110FC00EEA10E06A
:1006C0000EC080E3B9DE2196C017D107D4F3809124
:1006D0008E038F5F80938E0305C003EA10E0C0E0B5
:1006E000D0E0EFCFDF91CF911F910F910895AF929E
:1006F000BF92CF92DF92EF92FF920F931F93CF930F
:10070000DF93CDB7DEB72A970FB6F894DEBF0FBEE2
:10071000CDBFCBDFC7DC0F2EF4E6BF2EF02DA12C12
:100720007E0127E0E20EF11CC8DC8C0190938B0364
:1007300080938A0383E180DE8FEF93EDE0E38150C5
:100740009040E040E1F700C00000B80180E090E098
:10075000E7D727ED33EA40EA5BE30E941E0C20E076
:1007600030E04AE754E40E941E0CA9D7DC01CB011B
:100770004AE0BE016F5F7F4F0E94A90CD12C8A2DE9
:10078000CC24C394C80E6C2D02DE64E68D2D13DEDE
:100790008E010F5F1F4FF80181918F0190ED980F2F
:1007A0009A3010F48F5201C080E346DE80918C03B2
:1007B000833019F40E151F0571F78BE03DDE8BE0D9
:1007C0003BDE8BE039DEFFEF29E688E1F150204087
:1007D0008040E1F700C00000D394D3948C2D863084
:1007E00079F687E229DEBA94B1109ECF2A960FB629
:1007F000F894DEBF0FBECDBFDF91CF911F910F9157
:10080000FF90EF90DF90CF90BF90AF900895CF9280
:10081000DF92EF92FF920F931F93CF93DF9345DF09
:1008200059DCD5E0C1E000E060DC9093890380935F
:100830008803BC0180E090E073D725E83BEE49E8EF
:100840005BE3FCD720E030E04AE754E4F7D76B01E4
:100850007C01609391037093920380939303909330
:1008600094031C2F20E030E0A901E4D718160CF007
:10087000102F112399F020E030E048E454E4C70140
:10088000B60119D7880F880B8C2341F02EEF34ED79
:1008900048E35FE3C701B601D1D7A3C01C2F20E016
:1008A00030E048E454E4C701B601C4D718160CF090
:1008B000102F112399F020E030E842EA54E4C701F8
:1008C000B601F9D6880F880B8C2341F023EE35EA68
:1008D0004BE55FE3C701B601B1D783C01C2F20E011
:1008E00030E844ED54E4C701B601A4D718160CF063
:1008F000102F112399F020E030E44CE155E4C701BA
:10090000B601D9D6880F880B8C2341F028E431EE4C
:100910004AE75FE3C701B60191D763C01C2F20E00F
:1009200030E44CE155E4C701B60184D718160CF049
:10093000102F112399F020E030E44EE455E4C70174
:10094000B601B9D6880F880B8C2341F021EC3AEC24
:1009500041E85FE3C701B60171D743C01C2F20E017
:1009600030E447E655E4C701B60164D718160CF029
:10097000102F112399F020E030E646E855E4C70136
:10098000B60199D6880F880B8C2341F027EC3BE405
:1009900047E85FE3C701B60151D723C01C2F20E011
:1009A00030E646E855E4C701B60144D718160CF006
:1009B000102F112399F020E030E44CE955E4C701F1
:1009C000B60179D6880F880B8C2341F024E533EEED
:1009D00045E85FE3C701B60131D703C060E070E0CE
:1009E000CB01EFE9FFE03197F1F700C0000067D6D7
:1009F000CB013EDD85E220DDD15009F015CFDF913E
:100A0000CF911F910F91FF90EF90DF90CF900895BD
:100A1000CF93DF9380E010DD80E00EDD46DE84B111
:100A20008C6284B985B1837D85B92B9AD0E0C0E012
:100A30006C2F8C2FACDC68E78D2FBDDCCA3028F41E
:100A400081E0FADC81E08C0FF7DC86EF8C0F8A30D6
:100A500028F482E0F1DC87EF8C0FEEDC8CEE8C0F5B
:100A60008A3028F483E0E8DC8DEE8C0FE5DC2D9AEB
:100A70002FEF89E698E1215080409040E1F700C0D7
:100A8000000015B82FEF89E698E121508040904092
:100A9000E1F700C000002A9A2FEF89E698E1215083
:100AA00080409040E1F700C000002A982FEF89E6CF
:100AB00098E1215080409040E1F700C00000CF5FF6
:100AC000DD5FC93109F0B4CFDF91CF9108952F9246
:100AD0003F924F925F926F927F928F929F92AF92CE
:100AE000BF92CF92DF92EF92FF920F931F93CF931B
:100AF000DF93CDB7DEB7ED970FB6F894DEBF0FBE2C
:100B0000CDBF83E3EBE9F2E0DE01119601900D9297
:100B10008A95E1F7CADDCE0101965C01612C712C4A
:100B20000F2EFAE05F2EF02D4E0194E3890E911CFA
:100B30000F2EF2E32F2EF02D6E01E7E3CE0ED11C27
:100B4000382C492C662D862D22DC6AE5862D880FEF
:100B5000860D31DCF401252D11922A95E9F7F50176
:100B6000E1905F018E2D8095881F8827881FF22DC8
:100B7000F81B8F2F61DC8E010C5C1F4F0E2C000CBC
:100B8000FF08452D632D742DC701E3D6F80181912F
:100B90008F0190ED980F9A3010F48F5201C080E3CE
:100BA0004BDC80918C03853019F40C151D0549F739
:100BB00080E342DC80E340DC7394F5E27F9E912D7C
:100BC0001124872D891B8695890F86958695982FE8
:100BD000990F990F990F981B892F91E0781290E047
:100BE000992339F081E026E0271508F080E0811193
:100BF00002C063940BC08FEF91EFEBE28150904005
:100C0000E040E1F700C0000050DD612CF3E37F120B
:100C100099CFED960FB6F894DEBF0FBECDBFDF9132
:100C2000CF911F910F91FF90EF90DF90CF90BF90E9
:100C3000AF909F908F907F906F905F904F903F907C
:100C40002F900895EF92FF920F931F93CF93DF930E
:100C5000CDB7DEB768970FB6F894DEBF0FBECDBF35
:100C60006AE58AE0A8DB63E083E091DB8CE0E3E304
:100C7000F3E0DE01119601900D928A95E1F78E0165
:100C80000F5F1F4F7E018CE0E80EF11CF80181918F
:100C90008F018F52D1DB0E151F05C1F764E084E090
:100CA00076DB6AE58AE087DB8CE0EFE3F3E0DE01E8
:100CB0001D9601900D928A95E1F78E01035F1F4FFB
:100CC0007E01F8E1EF0EF11CF80181918F018F5246
:100CD000B3DB0E151F05C1F768960FB6F894DEBF9B
:100CE0000FBECDBFDF91CF911F910F91FF90EF907D
:100CF00008951F93CF93DF93CDB7DEB728970FB634
:100D0000F894DEBF0FBECDBF20E8280F1AF082E0B6
:100D1000888703C091E09887282F90EC920F1AF0F3
:100D200082E08F8303C081E08F83922F80EE890F52
:100D30001AF092E09E8303C081E08E83892F90EFAA
:100D4000980F1AF082E08D8303C091E09D83982F65
:100D500088EF890F1AF092E09C8303C081E08C83B6
:100D6000892F9CEF980F1AF082E08B8303C091E0EB
:100D70009B83982F8EEF890F1AF092E09A8303C01D
:100D800081E08A83892F81501AF082E089830FC025
:100D900081E089830CC01150E1E0F0E0EC0FFD1F11
:100DA000E10FF11D808148DB1111F5CF02C018E081
:100DB000F2CF28960FB6F894DEBF0FBECDBFDF91FD
:100DC000CF911F910895EF92FF920F931F93CF93AE
:100DD000DF93CDB7DEB728970FB6F894DEBF0FBE0E
:100DE000CDBF88E0EBE4F3E0DE01119601900D92B7
:100DF0008A95E1F761E080E0CADA64E581E0DBDA58
:100E00008E010F5F1F4F7E0187E0E80EF11CF80195
:100E100081918F018F5210DB0E151F05C1F72896A7
:100E20000FB6F894DEBF0FBECDBFDF91CF911F91FB
:100E30000F91FF90EF900895EF92FF920F931F9301
:100E4000CF93DF93CDB7DEB728970FB6F894DEBF08
:100E50000FBECDBF88E0E3E5F3E0DE01119601901F
:100E60000D928A95E1F761E081E091DA64E581E035
:100E7000A2DA8E010F5F1F4F7E0187E0E80EF11CA2
:100E8000F80181918F018F52D7DA0E151F05C1F736
:100E900028960FB6F894DEBF0FBECDBFDF91CF917D
:100EA0001F910F91FF90EF900895EF92FF920F9393
:100EB0001F93CF93DF93CDB7DEB728970FB6F89483
:100EC000DEBF0FBECDBF88E0EBE5F3E0DE0111969B
:100ED00001900D928A95E1F762E082E058DA64E5CC
:100EE00081E069DA8E010F5F1F4F7E0187E0E80E17
:100EF000F11CF80181918F018F529EDA0E151F05AA
:100F0000C1F728960FB6F894DEBF0FBECDBFDF91B4
:100F1000CF911F910F91FF90EF900895EF92FF9264
:100F20000F931F93CF93DF93CDB7DEB728970FB6FC
:100F3000F894DEBF0FBECDBF88E0E3E6F3E0DE014C
:100F4000119601900D928A95E1F763E083E01FDA34
:100F500064E581E030DA8E010F5F1F4F7E0187E08C
:100F6000E80EF11CF80181918F018F5265DA0E15A0
:100F70001F05C1F728960FB6F894DEBF0FBECDBF90
:100F8000DF91CF911F910F91FF90EF900895EF9215
:100F9000FF920F931F93CF93DF93CDB7DEB72897C0
:100FA0000FB6F894DEBF0FBECDBF88E0EBE6F3E0EE
:100FB000DE01119601900D928A95E1F764E084E0DC
:100FC000E6D964E581E0F7D98E010F5F1F4F7E01FE
:100FD00087E0E80EF11CF80181918F018F522CDA25
:100FE0000E151F05C1F728960FB6F894DEBF0FBE89
:100FF000CDBFDF91CF911F910F91FF90EF9008959A
:10100000EF92FF920F931F93CF93DF93CDB7DEB78D
:1010100028970FB6F894DEBF0FBECDBF88E0E3E798
:10102000F3E0DE01119601900D928A95E1F765E0FB
:1010300085E0ADD964E581E0BED98E010F5F1F4F19
:101040007E0187E0E80EF11CF80181918F018F523B
:10105000F3D90E151F05C1F728960FB6F894DEBF19
:101060000FBECDBFDF91CF911F910F91FF90EF90F9
:101070000895EF92FF920F931F93CF93DF93CDB715
:10108000DEB727970FB6F894DEBF0FBECDBF87E05F
:10109000EBE7F3E0DE01119601900D928A95E1F7FE
:1010A00066E086E074D964E581E085D98E010F5F42
:1010B0001F4F7E0187E0E80EF11CF80181918F013E
:1010C0008F52BAD90E151F05C1F727960FB6F8949F
:1010D000DEBF0FBECDBFDF91CF911F910F91FF906B
:1010E000EF900895EF92FF920F931F93CF93DF93AA
:1010F00000D000D000D0CDB7DEB786E0E2E8F3E064
:10110000DE01119601900D928A95E1F767E087E084
:101110003ED964E581E04FD98E010F5F1F4F7E01FC
:1011200086E0E80EF11CF80181918F018F5284D97D
:101130000E151F05C1F726960FB6F894DEBF0FBE39
:10114000CDBFDF91CF911F910F91FF90EF90089548
:1011500060E080E01CD96FE784E72DD980918C0393
:101160008F5F6AD980918C038230D0F06FE784E77B
:1011700022D980918C038150682F09D910923302B3
:1011800080E35AD9809133028F5F8093330282309B
:10119000B8F380918C03873018F081E080938C0342
:1011A0006FE784E708D980918C03682FF0D88DE031
:1011B00043D98EE041D9E89A2FEF89E698E1215092
:1011C00080409040E1F700C000000895CF92DF9288
:1011D000EF92FF920F931F93CF93DF93CDB7DEB7BC
:1011E0006C970FB6F894DEBF0FBECDBF8CE1E0E187
:1011F000F3E0DE01119601900D928A95E1F7CE01A0
:1012000001966C0100E00093900300930001602FB1
:10121000802FBDD862E788E5CED8760110E0F701CF
:1012200081917F019FEB980F9A3110F48F5201C08A
:1012300080E302D91F5F143091F70F5FF4E0CF0E07
:10124000D11C073001F7E3D96C960FB6F894DEBFD6
:101250000FBECDBFDF91CF911F910F91FF90EF9007
:10126000DF90CF9008951F920F920FB60F92112426
:101270008F9380918F038F5F80938F038F910F9057
:101280000FBE0F901F901895789489E09DE390937E
:10129000890080938800E1E8F0E080818D608083A0
:1012A000EFE6F0E080818260808308953F924F9264
:1012B0005F926F927F928F929F92AF92BF92CF92E6
:1012C000DF92EF92FF920F931F93CF93DF93EDD9AD
:1012D0007DDFB8DCD9DF8091840090918500A12C5E
:1012E000612CCFE6D0E0CC24C394BC2C1C2D94C040
:1012F0008C2D0E9424018C2D0E94FA008C2D0E94BE
:101300004E01412C5CC080918C03823009F088C072
:1013100064E084E03CD86AE586E44DD8A8958091E5
:101320008F038F5F89D8812F90918F039A3008F4B3
:101330008F2D882331F0812F023009F08F2D8111FC
:1013400022C088818260888380918F038A30D8F29E
:1013500033243394300E90928F036AE580E42BD8C7
:1013600082E0800F69D8812F67D886E0381659F05F
:10137000032D80918F038A3058F780918C0382303F
:1013800009F04EC0C5CFE0928F036AE584E313D81D
:101390008D2D52D88E2D50D88B2D4ED88B2D4CD8CC
:1013A000D3948BE0D81611F00E2DE3CF43946AE569
:1013B0008EE201D8842D40D886E0481621F068944A
:1013C000DD24D1F8F1CF539453946AE582E20E9470
:1013D000DB01852D31D8872D2FD884E0581288CF96
:1013E00083946AE58CE10E94DB01882D25D882E098
:1013F000881621F0512C9E2CFE2C7ACFA39465E008
:1014000085E00E94C7016AE58EE10E94DB018A2D1A
:1014100013D882E0A81621F0812C762CE62CEACF96
:1014200081E00E94FA0010928F03DF91CF911F910B
:101430000F91FF90EF90DF90CF90BF90AF909F9073
:101440008F907F906F905F904F903F9008951F9284
:101450000F920FB60F9211242F933F934F935F93E8
:101460006F937F938F939F93AF93BF93EF93FF936C
:101470008DB38DBB80918C038F5F80938C032FEF96
:1014800081EF9BE2215080409040E1F700C00000D6
:101490005FDEFF91EF91BF91AF919F918F917F910F
:1014A0006F915F914F913F912F910F900FBE0F90D1
:1014B0001F9018950E94EF01F8D885DC8DB38093BA
:1014C000950317DCB9DC85B18093950312DCEDDC64
:1014D00085B7809395030DDC21DD84B78093950358
:1014E00008DC55DD809169008093950302DC88DD7E
:1014F0008AB180939503FDDBBCDD8BB180939503AE
:10150000F8DBF0DD8CB380939503F3CB08958091E5
:101510008D03813021F510928D0380918C038330EF
:1015200091F028F4813049F0823051F008958530EF
:1015300081F060F0863081F00895BCDFE99A08956B
:10154000B5DEE99A0895D3D8E99A089560D9E99A61
:101550000895BDDAE99A08955BDAE99A089581E081
:101560000C94240108951F920F920FB60F9211242C
:101570002F933F934F935F936F937F938F939F939B
:10158000AF93BF93EF93FF938DB38DBB81E08093B7
:101590008D032FEF81EF9BE2215080409040E1F7D7
:1015A00000C00000B4DFFF91EF91BF91AF919F9118
:1015B0008F917F916F915F914F913F912F910F90FC
:1015C0000FBE0F901F9018958FEF8BB98AB1837F54
:1015D0008AB9E9E6F0E0808180838DB383608DBBBA
:1015E000089583E00E94CF000E9499002FEF8EE7BC
:1015F0009CE6215080409040E1F700C0000082E06E
:101600000E94CF008FEF84B987B98AB917B891E0EB
:1016100095B99BB988B982E08093B80083E0809344
:10162000B9000E946F010E947E010E9490018FEA22
:10163000809334020E94B4010E94900181E880935B
:1016400034020E94B4010E9490018FE08093340222
:101650000E94B4010E9490018DE8809334020E94A0
:10166000B4010E94900184E1809334020E94B4018D
:101670000E94900186EA809334020E94B4012FEF09
:1016800082E191E0215080409040E1F700C00000ED
:1016900084E98093BC000E946F010E947E0105D8FE
:1016A00085E00E94240190DF789490DD51DD83E095
:1016B0000E94FA00FACF71D008F481E0089504D0B6
:1016C0006894B111B1C0089594D088F09F5790F0FC
:1016D000B92F9927B751A0F0D1F0660F771F881F57
:1016E000991F1AF0BA95C9F712C0B13081F09BD09A
:1016F000B1E0089598C0672F782F8827B85F39F038
:10170000B93FCCF3869577956795B395D9F73EF4B5
:1017100090958095709561957F4F8F4F9F4F08955D
:10172000E89409C097FB3EF490958095709561957B
:101730007F4F8F4F9F4F9923A9F0F92F96E9BB2731
:101740009395F695879577956795B795F111F8CFAD
:10175000FAF4BB0F11F460FF1BC06F5F7F4F8F4F18
:101760009F4F16C0882311F096E911C0772321F00E
:101770009EE8872F762F05C0662371F096E8862FA6
:1017800070E060E02AF09A95660F771F881FDAF7FD
:10179000880F9695879597F90895990F0008550F2A
:1017A000AA0BE0E8FEEF16161706E807F907C0F0E7
:1017B00012161306E407F50798F0621B730B840BEF
:1017C000950B39F40A2661F0232B242B252B21F4C9
:1017D00008950A2609F4A140A6958FEF811D811D69
:1017E000089557FD9058440F551F59F05F3F71F011
:1017F0004795880F97FB991F61F09F3F79F0879578
:101800000895121613061406551FF2CF4695F1DF00
:1018100008C0161617061806991FF1CF8695710590
:10182000610508940895E894BB2766277727CB01C4
:1018300097F90895B2DF08F48FEF08950BD078C0C0
:1018400069D028F06ED018F0952309F05AC05FC017
:101850001124EACFC6DFA0F3959FD1F3950F50E096
:10186000551F629FF001729FBB27F00DB11D639F52
:10187000AA27F00DB11DAA1F649F6627B00DA11DF8
:10188000661F829F2227B00DA11D621F739FB00D9E
:10189000A11D621F839FA00D611D221F749F33270E
:1018A000A00D611D231F849F600D211D822F762FA7
:1018B0006A2F11249F5750408AF0E1F088234AF0A4
:1018C000EE0FFF1FBB1F661F771F881F91505040F0
:1018D000A9F79E3F510570F014C0A6CF5F3FECF30F
:1018E000983EDCF3869577956795B795F795E795DC
:1018F0009F5FC1F7FE2B880F911D9695879597F9ED
:10190000089597F99F6780E870E060E008959FEF81
:1019100080EC089500240A94161617061806090686
:10192000089500240A941216130614060506089555
:10193000092E0394000C11F4882352F0BB0F40F4DD
:10194000BF2B11F460FF04C06F5F7F4F8F4F9F4F1D
:101950000895BB274A3031F4992322F4BDE29095D3
:1019600081959F4F01C0BB27FB015527AA27880FF0
:10197000991FAA1FA41710F0A41B83955051B9F703
:10198000A05DAA3308F0A95DA193009779F7B11182
:10199000B1931192CB0100C0DC01FC01672F719162
:1019A0007723E1F7329704C07C916D937083629145
:0C19B000AE17BF07C8F30895F894FFCFEE
:1019BC0007000036360000003E5149453E0000420B
:1019CC007F4000004261514946002141454B3100A6
:1019DC001814127F10002745454539003C4A4949E7
:1019EC0030000171090503003649494936000649A2
:1019FC0049291E00006060000000005636000000FF
:101A0C000814224100001414141414000041221470
:101A1C000800020151090600324959513E007C125E
:101A2C0011127C007F49494936003E414141220058
:101A3C007F4141221C007F49494941007F09090926
:101A4C0001003E4149497A007F0808087F000041A7
:101A5C007F4100002040413F01007F0814224100DB
:101A6C007F40404040007F020C027F007F04081042
:101A7C007F003E4141413E007F09090906003E417D
:101A8C0051215E007F091929460046494949310018
:101A9C0001017F0101003F4040403F001F204020DA
:101AAC001F003F4038403F006314081463000708D0
:101ABC0070080700615149454300007F4141000017
:101ACC00552A552A55000041417F00FFFFFFFFFFBB
:101ADC00FF0000000000000008083E08080008088D
:101AEC0008080801AF220EF20DD40DB60D980D7A30
:101AFC000D660D520D3E0D2A0DC60CA30C7B0C531E
:101B0C000C2B0C030CD70BAF0B870B5F0B370B0499
:101B1C000BDC0AB40A8C0A640A280A000AD809B039
:101B2C000988095B0933090B09E308BB088E0866B1
:101B3C00083E081608EE07C6079E0776074E0726CE
:101B4C00070D07E506BD0695066D06F6F7F8F9FADA
:101B5C00FBFCFDFEFF000102030405060708090A51
:101B6C000B0C0D0E0F101112131415161718191A41
:101B7C001B1C1D1E1F2021222324252627285355DC
:101B8C004E44415900000000004D4F4E4441590055
:101B9C0000000000545545534441590000000057C3
:101BAC0045444E4553444159000054485552534402
:101BBC0041590000004652494441590000000000C0
:101BCC004C494E0052454700535457004144430082
:101BDC0041445431544300005348524756303A3034
:101BEC003A380044443A48483A4D4D3A5353003041
:101BFC00303A30303A30303A30300045494D534B62
:101C0C003A3A00504F5254423A3A004D43554352DF
:101C1C003A3A004D435553523A3A004549435241E2
:101C2C003A3A00444452443A3A3A00504F525444DF
:081C3C003A00454946523A0006
:00000001FF
