S00E00006F6C5F3332382E737265633F
S113000033C000000C94EE0A0C947C0B4AC0000030
S113001048C0000046C0000044C0000042C00000C8
S113002040C000003EC000003CC000000C94E80941
S113003038C0000036C0000034C0000032C00000E8
S113004030C000002EC000002CC000002AC00000F8
S113005028C0000026C0000024C0000022C0000008
S113006020C000001EC0000011241FBECFEFD8E046
S1130070DEBFCDBF13E0A0E0B1E0EEE2FBE102C0E1
S113008005900D92A238B107D9F723E0A2E8B3E0B6
S113009001C01D92A039B207E1F70E94BA0B0C947B
S11300A0950DAECFEAE7F0E0808187688083ECE7C6
S11300B0F0E08081806480830895EAE7F0E0808145
S11300C080648083808186FDFDCF8091780090914B
S11300D079000895EAE7F0E0808187688083ECE79F
S11300E0F0E08081816480830895EAE7F0E0808114
S11300F080648083808186FDFDCF8091780090911B
S11301007900089590E0181619062CF520E030E0E7
S113011042E05FEF65EA7EE0515060407040E1F7F5
S113012000C0000045B95FEF65EA7EE051506040D1
S11301307040E1F700C0000015B85FEF65EA7EE0AB
S1130140515060407040E1F700C000002F5F3F4F06
S113015028173907F1F6089590E0181619062CF5BA
S113016020E030E041E05FEF63EC79E05150604023
S11301707040E1F700C0000045B95FEF63EC79E03F
S1130180515060407040E1F700C0000015B85FEFC7
S113019063EC79E0515060407040E1F700C000002A
S11301A02F5F3F4F28173907F1F6089590E018168E
S11301B019069CF420E030E040E84BB95FEF69EFAA
S11301C070E0515060407040E1F700C000001BB87F
S11301D02F5F3F4F2817390781F7089583E0BCCF7D
S11301E0089586E0B9CF089589E0B6CF089584EAEA
S11301F08093BC00ECEBF0E080818823ECF78091E5
S1130200B900887F883009F0E9CF089588E78093A2
S1130210BB0084E88093BC00ECEBF0E08081882391
S1130220ECF78091B900887F883109F0DACF08951E
S113023080E88093BB0084E88093BC00ECEBF0E0A2
S113024080818823ECF78091B900887F883209F097
S1130250CBCF089580EC8093BB0084E88093BC00EE
S1130260ECEBF0E080818823ECF78091B900887F83
S1130270883209F0B9CF0895809134028093BB008D
S113028084E88093BC00ECEBF0E080818823ECF7F9
S11302908091B900887F883209F0A6CF0895CF9362
S11302A0DF93D82FC62FC4DF82E280933402E4DFC9
S11302B0BFDFD0933402E0DFBBDFC0933402DCDF66
S11302C0DF91CF910895CF93DF93D82FC62FB0DF5E
S11302D081E280933402D0DFABDFD0933402CCDFF1
S11302E0A7DFC0933402C8DFDF91CF910895A0DF68
S11302F08FE780933402C0DF9BDF80E28093340277
S1130300BBDF96DF10923402B7DF67E080E0C7DF1F
S11303106FE780E0D8DF8CDF80E480933402ACDFC9
S113032087DF84EA80933402A7DF82DF86EA809342
S11303303402A2DF2FEF82E191E02150804090400F
S1130340E1F700C0000008951F93CF93DF9390E07E
S1130350EC01CC0FDD1FC80FD91FCC0FDD1FCF5F01
S1130360DE4F10E077DF89918093340285DF1F5FD1
S11303701630C1F781E01ADFDF91CF911F91089504
S1130380DF92EF92FF920F931F93CF93DF93CDB73A
S1130390DEB727970FB6F894DEBF0FBECDBF6FE769
S11303A085E591DF67E087E07ADF87E0E5E2F3E067
S11303B0DE01119601900D928A95E1F789818F52A1
S11303C07E0192E0E90EF11C10E001E0D12C14C092
S11303D0F70181917F0120ED280F902F2A3008F436
S11303E09D2D992331F0902F163008F49D2D9111F5
S11303F002C08F5201C080E3A7DF1F5F173041F7AF
S113040027960FB6F894DEBF0FBECDBFDF91CF9114
S11304101F910F91FF90EF90DF9008950F931F931A
S1130420CF93DF9364DF8091880381110FC00EEABC
S113043010E00EC080E388DF2196C017D107D4F303
S1130440809188038F5F8093880305C003EA10E0DE
S1130450C0E0D0E0EFCFDF91CF911F910F910895CD
S11304604F925F926F927F929F92AF92BF92CF9280
S1130470DF92EF92FF920F931F93CF93DF93CDB749
S1130480DEB72E970FB6F894DEBF0FBECDBFC6DF22
S113049009DE0F2EF4E6AF2EF02D1B861C861D867A
S11304A01E86BB24B394912C7E0187E0E80EF11CD8
S11304B004DE9093850380938403BC0180E090E084
S11304C00E94490C25E83BEE49E85BE30E94D70C07
S11304D020E030E04AE754E40E94D70C2B013C01B1
S11304E01B2D20E030E0A9010E94D30C18160CF05B
S11304F0192D1123C9F020E030E048E454E4C3018D
S1130500B2010E94140C880F880B8B2169F02EEF26
S113051034ED48E35FE3C301B2010E94D70C6B875B
S11305207C878D879E87C2C01B2D20E030E048E485
S113053054E4C301B2010E94D30C18160CF0192D17
S11305401123C9F020E030E842EA54E4C301B201C7
S11305500E94140C880F880B8B2169F023EE35EA76
S11305604BE55FE3C301B2010E94D70C6B877C8724
S11305708D879E879BC01B2D20E030E844ED54E41A
S1130580C301B2010E94D30C18160CF0192D1123CB
S1130590C9F020E030E44CE155E4C301B2010E940B
S11305A0140C880F880B8B2169F028E431EE4AE79C
S11305B05FE3C301B2010E94D70C6B877C878D87F0
S11305C09E8774C01B2D20E030E44CE155E4C30148
S11305D0B2010E94D30C18160CF0192D1123C9F086
S11305E020E030E44EE455E4C301B2010E94140C4F
S11305F0880F880B8B2169F021EC3AEC41E85FE32A
S1130600C301B2010E94D70C6B877C878D879E87BC
S11306104DC01B2D20E030E447E655E4C301B20190
S11306200E94D30C18160CF0192D1123C9F020E0E8
S113063030E646E855E4C301B2010E94140C880F69
S1130640880B8B2169F027EC3BE447E85FE3C301A7
S1130650B2010E94D70C6B877C878D879E8726C04A
S11306601B2D20E030E646E855E4C301B2010E94A8
S1130670D30C18160CF0192D1123C1F020E030E42E
S11306804CE955E4C301B2010E94140C880F880B95
S11306908B2161F024E533EE45E85FE3C301B20149
S11306A00E94D70C6B877C878D879E87EFE9FFE0DC
S11306B03197F1F700C000006B857C858D859E85A0
S11306C00E94180CDC01CB014AE0BE016F5F7F4F32
S11306D00E94620DD12C892DCC24C394C80E6C2D9C
S11306E0DEDD64E68D2DEFDD8E010F5F1F4FF80117
S11306F081918F0190ED980F9A3010F48F5201C0C0
S113070080E322DE80918603833019F40E151F05E1
S113071071F78BE019DE8BE017DE8BE015DED394E6
S1130720D3948C2D8630C1F687E20EDEAA94A110F4
S1130730BFCE2E960FB6F894DEBF0FBECDBFDF91AD
S1130740CF911F910F91FF90EF90DF90CF90BF90CA
S1130750AF909F907F906F905F904F9008952F92ED
S11307603F924F925F926F927F928F929F92AF923D
S1130770BF92CF92DF92EF92FF920F931F93CF938A
S1130780DF93CDB7DEB72A970FB6F894DEBF0FBE5E
S1130790CDBF44DE9FDC0F2EF2E38F2EF02D992483
S11307A09394312C0F2EFAE02F2EF02DCE010196CA
S11307B06C017E0196E0E90EF11C97DC90938303B3
S11307C080938203BC0180E090E00E94490C25E8FC
S11307D03BEE49E85BE30E94D70C20E030E04AE7B7
S11307E054E40E94D70C2B013C0160938B0370935B
S11307F08C0380938D0390938E03192D20E030E0B9
S1130800A9010E94D30C18160CF0132D1123A9F082
S113081020E030E048E454E4C301B2010E94140C27
S1130820880F880B892149F02EEF34ED48E35FE30C
S1130830C301B2010E94D70CADC0192D20E030E0F5
S113084048E454E4C301B2010E94D30C18160CF01E
S1130850132D1123A1F020E030E842EA54E4C3014F
S1130860B201E2D7880F880B892149F023EE35EADB
S11308704BE55FE3C301B2010E94D70C8BC0192D75
S113088020E030E844ED54E4C301B2010E94D30CEB
S113089018160CF0132D1123A1F020E030E44CE1E4
S11308A055E4C301B201C0D7880F880B892149F0F0
S11308B028E431EE4AE75FE3C301B2010E94D70C9A
S11308C069C0192D20E030E44CE155E4C301B201C4
S11308D00E94D30C18160CF0132D1123A1F020E064
S11308E030E44EE455E4C301B2019ED7880F880B6F
S11308F0892149F021EC3AEC41E85FE3C301B201FC
S11309000E94D70C47C0192D20E030E447E655E497
S1130910C301B2010E94D30C18160CF0132D11233D
S1130920A1F020E030E646E855E4C301B2017CD7EB
S1130930880F880B892149F027EC3BE447E85FE303
S1130940C301B2010E94D70C25C0192D20E030E666
S113095046E855E4C301B2010E94D30C18160CF00A
S1130960132D1123A1F020E030E44CE955E4C30138
S1130970B2015AD7880F880B892149F024E533EE58
S113098045E85FE3C301B2010E94D70C03C060E0F5
S113099070E0CB01EFE9FFE03197F1F700C0000010
S11309A0F601222D11922A95E9F742D7DC01CB01F9
S11309B0422DB6010E94620DA12CB12C6B2D8B2D02
S11309C06EDC64E68A2D7FDC8E010F5F1F4FF80119
S11309D081918F0190ED980F9A3010F48F5201C0DD
S11309E080E3B2DC80918603843019F40E151F0570
S11309F071F7B394F6E0AF0EBF12E0CF85E2A4DC4A
S1130A008A948110DACE2A960FB6F894DEBF0FBE10
S1130A10CDBFDF91CF911F910F91FF90EF90DF90A9
S1130A20CF90BF90AF909F908F907F906F905F908A
S1130A304F903F902F9008952F923F924F925F9244
S1130A406F927F928F929F92AF92BF92CF92DF92DA
S1130A50EF92FF920F931F93CF93DF93CDB7DEB73F
S1130A60ED970FB6F894DEBF0FBECDBF83E3E5E389
S1130A70F2E0DE01119601900D928A95E1F7CEDC49
S1130A80CE0101965C01612C712C0F2EFAE05F2ED1
S1130A90F02D4E0194E3890E911C0F2EF2E32F2EBC
S1130AA0F02D6E01E7E3CE0ED11C382C492C662DB7
S1130AB0862DF5DB6AE5862D880F860D04DCF401AE
S1130AC0252D11922A95E9F7F501E1905F018E2D0C
S1130AD08095881F8827881FF22DF81B8F2F34DC00
S1130AE08E010C5C1F4F0E2C000CFF08452D632D4E
S1130AF0742DC701E7D7F80181918F0190ED980F0C
S1130B009A3010F48F5201C080E31EDC809186037A
S1130B10853019F40C151D0549F780E315DC80E3D5
S1130B2013DC7394F5E27F9E912D1124872D891B8C
S1130B308695890F86958695982F990F990F990F09
S1130B40981B892F91E0781290E0992339F081E085
S1130B5026E0271508F080E0811102C063940BC0E1
S1130B608FEF91EFEBE281509040E040E1F700C05D
S1130B70000054DC612CF3E37F1299CFED960FB69D
S1130B80F894DEBF0FBECDBFDF91CF911F910F91BF
S1130B90FF90EF90DF90CF90BF90AF909F908F9099
S1130BA07F906F905F904F903F902F9008952F9279
S1130BB03F924F925F926F927F928F929F92AF92E9
S1130BC0BF92CF92DF92EF92FF920F931F93CF9336
S1130BD0DF93CDB7DEB7CD5AD1090FB6F894DEBF97
S1130BE00FBECDBF86E6E8E6F2E0DE011196019085
S1130BF00D928A95E1F783E3E5E3F2E0DE01A9597A
S1130C00BF4F01900D928A95E1F7FE01E656FF4F22
S1130C108AE0DF01282F1D922A95E9F73A96DF0131
S1130C201D928A95E9F7FD972F01CE0101965C018B
S1130C30E12CF12C0F2EF2E37F2EF02D0F2EF5E296
S1130C406F2EF02D332433946F2D8F2D28DB2F2C12
S1130C50220C2F0C6AE5822D36DBD201CD902D01BA
S1130C608C2D8095881F8827881FB72DB81B8B2F44
S1130C706BDB8E0106561F4F4801E3E08E0E911C7C
S1130C800C2C000CDD084AE0BE0166567F4FC601FD
S1130C9019D7D8018D918D0190ED980F9A3010F4E9
S1130CA08F5201C080E350DB80918603863019F4B3
S1130CB00815190541F780E347DB80E345DB6F2D19
S1130CC08F2DEDDA64E68BE1820DFDDA8E010C5591
S1130CD01F4F6801B4E0CB0ED11C4AE0BE016C5535
S1130CE07F4FF50180819181EDD6D8018D918D01E1
S1130CF08F522ADB80918603863019F40C151D056A
S1130D0061F780E321DB80E31FDBE394E69C912D14
S1130D1011248E2D891B8695890F86958695982F8B
S1130D20990F990F990F981B892F932DE81290E032
S1130D30992339F0832DB6E0BE1508F080E08111C7
S1130D4002C0F3940BC0EFEFF1EF2BE2E150F0405F
S1130D502040E1F700C0000061DBF12C82E0A80E26
S1130D60B11C93E3E91270CFC355DF4F0FB6F8946B
S1130D70DEBF0FBECDBFDF91CF911F910F91FF90CA
S1130D80EF90DF90CF90BF90AF909F908F907F9027
S1130D906F905F904F903F902F900895EF92FF9245
S1130DA00F931F93CF93DF93CDB7DEB768970FB63A
S1130DB0F894DEBF0FBECDBF6AE58AE084DA63E053
S1130DC083E06DDA8CE0ECE2F3E0DE011196019051
S1130DD00D928A95E1F78E010F5F1F4F7E018CE023
S1130DE0E80EF11CF80181918F018F52ADDA0E15D6
S1130DF01F05C1F764E084E052DA6AE58AE063DA49
S1130E008CE0E8E3F3E0DE011D9601900D928A95F3
S1130E10E1F78E01035F1F4F7E01F8E1EF0EF11C35
S1130E20F80181918F018F528FDA0E151F05C1F7DA
S1130E3068960FB6F894DEBF0FBECDBFDF91CF9199
S1130E401F910F91FF90EF9008951F93CF93DF931D
S1130E50CDB7DEB728970FB6F894DEBF0FBECDBF6F
S1130E6020E8280F1AF082E0888703C091E0988771
S1130E70282F90EC920F1AF082E08F8303C081E058
S1130E808F83922F80EE890F1AF092E09E8303C025
S1130E9081E08E83892F90EF980F1AF082E08D8382
S1130EA003C091E09D83982F88EF890F1AF092E098
S1130EB09C8303C081E08C83892F9CEF980F1AF0E8
S1130EC082E08B8303C091E09B83982F8EEF890F80
S1130ED01AF092E09A8303C081E08A83892F8150BB
S1130EE01AF082E089830FC081E089830CC011501D
S1130EF0E1E0F0E0EC0FFD1FE10FF11D808124DA49
S1130F001111F5CF02C018E0F2CF28960FB6F8946D
S1130F10DEBF0FBECDBFDF91CF911F910895EF9239
S1130F20FF920F931F93CF93DF93CDB7DEB728972C
S1130F300FB6F894DEBF0FBECDBF88E0E4E4F3E063
S1130F40DE01119601900D928A95E1F761E080E04F
S1130F50A6D964E581E0B7D98E010F5F1F4F7E01EA
S1130F6087E0E80EF11CF80181918F018F52ECD9D2
S1130F700E151F05C1F728960FB6F894DEBF0FBEF5
S1130F80CDBFDF91CF911F910F91FF90EF90089506
S1130F90EF92FF920F931F93CF93DF93CDB7DEB7FA
S1130FA028970FB6F894DEBF0FBECDBF88E0ECE4FF
S1130FB0F3E0DE01119601900D928A95E1F761E06C
S1130FC081E06DD964E581E07ED98E010F5F1F4F0A
S1130FD07E0187E0E80EF11CF80181918F018F52A8
S1130FE0B3D90E151F05C1F728960FB6F894DEBFC6
S1130FF00FBECDBFDF91CF911F910F91FF90EF9066
S11310000895EF92FF920F931F93CF93DF93CDB781
S1131010DEB728970FB6F894DEBF0FBECDBF88E0C9
S1131020E4E5F3E0DE01119601900D928A95E1F773
S113103062E082E034D964E581E045D98E010F5F36
S11310401F4F7E0187E0E80EF11CF80181918F01AA
S11310508F527AD90E151F05C1F728960FB6F8944A
S1131060DEBF0FBECDBFDF91CF911F910F91FF90D7
S1131070EF900895EF92FF920F931F93CF93DF9316
S1131080CDB7DEB728970FB6F894DEBF0FBECDBF3D
S113109088E0ECE5F3E0DE01119601900D928A956B
S11310A0E1F763E083E0FBD864E581E00CD98E01CD
S11310B00F5F1F4F7E0187E0E80EF11CF80181915C
S11310C08F018F5241D90E151F05C1F728960FB60F
S11310D0F894DEBF0FBECDBFDF91CF911F910F916A
S11310E0FF90EF900895EF92FF920F931F93CF9389
S11310F0DF93CDB7DEB728970FB6F894DEBF0FBEE7
S1131100CDBF88E0E4E6F3E0DE01119601900D9294
S11311108A95E1F764E084E0C2D864E581E0D3D83D
S11311208E010F5F1F4F7E0187E0E80EF11CF8016E
S113113081918F018F5208D90E151F05C1F728968A
S11311400FB6F894DEBF0FBECDBFDF91CF911F91D4
S11311500F91FF90EF900895EF92FF920F931F93DA
S1131160CF93DF93CDB7DEB728970FB6F894DEBFE1
S11311700FBECDBF88E0ECE6F3E0DE0111960190EE
S11311800D928A95E1F765E085E089D864E581E010
S11311909AD88E010F5F1F4F7E0187E0E80EF11C85
S11311A0F80181918F018F52CFD80E151F05C1F719
S11311B028960FB6F894DEBF0FBECDBFDF91CF9156
S11311C01F910F91FF90EF900895EF92FF920F936C
S11311D01F93CF93DF93CDB7DEB727970FB6F8945D
S11311E0DEBF0FBECDBF87E0E4E7F3E0DE0111967A
S11311F001900D928A95E1F766E086E050D864E5A7
S113120081E061D88E010F5F1F4F7E0187E0E80EF9
S1131210F11CF80181918F018F5296D80E151F058C
S1131220C1F727960FB6F894DEBF0FBECDBFDF918E
S1131230CF911F910F91FF90EF900895EF92FF923D
S11312400F931F93CF93DF9300D000D000D0CDB77E
S1131250DEB786E0EBE7F3E0DE01119601900D9234
S11312608A95E1F767E087E01AD864E581E02BD836
S11312708E010F5F1F4F7E0186E0E80EF11CF8011E
S113128081918F018F5260D80E151F05C1F72696E4
S11312900FB6F894DEBF0FBECDBFDF91CF911F9183
S11312A00F91FF90EF90089560E080E00E944F015D
S11312B06FE784E708D8809186038F5F45D88091D3
S11312C086038230E0F06FE784E70E946301809137
S11312D086038150682F0E944F011092330280E3ED
S11312E033D8809133028F5F809333028230B8F316
S11312F080918603873018F081E0809386036FE73E
S113130084E70E94630180918603682F0E944F0145
S11313108DE01AD88EE018D8E89A2FEF89E698E184
S1131320215080409040E1F700C000000895CF9222
S1131330DF92EF92FF920F931F93CF93DF93CDB77A
S1131340DEB765970FB6F894DEBF0FBECDBF85E15B
S1131350E0E1F3E0DE01119601900D928A95E1F748
S1131360CE0101966C0100E000938A030093000112
S1131370602F802F0E944F016AE688E50E94630176
S1131380760110E0F70181917F019FEB980F9A316C
S113139010F48F5201C080E30E94A4011F5F133038
S11313A089F70F5FF3E0CF0ED11C0730E9F60E94F6
S11313B0C00165960FB6F894DEBF0FBECDBFDF91B6
S11313C0CF911F910F91FF90EF90DF90CF900895F0
S11313D01F920F920FB60F9211248F93809189035D
S11313E08F5F809389038F910F900FBE0F901F9092
S11313F01895789489E09DE3909389008093880000
S1131400E1E8F0E080818D608083EFE6F0E08081A8
S11314108260808308953F924F925F926F927F9291
S11314208F929F92AF92BF92CF92DF92EF92FF92F0
S11314300F931F93CF93DF930E940E0278DFAEDCED
S1131440D8DF8091840090918500A12C612CCFE697
S1131450D0E0CC24C394BC2C1C2DA5C08C2D0E94A0
S1131460AC008C2D0E9482008C2D0E94D600412C51
S113147069C080918603823009F099C064E084E0F9
S11314800E944F016AE586E40E946301A895809159
S113149089038F5F0E94A401812F909189039A3060
S11314A008F48F2D882331F0812F023009F08F2D1D
S11314B0811125C0888182608883809189038A3064
S11314C0C0F233243394300E909289036AE580E4A9
S11314D00E94630182E0800F0E94A401812F0E9478
S11314E0A40186E0381659F0032D809189038A30CF
S11314F040F780918603823009F059C0BFCFE09253
S113150089036AE584E30E9463018D2D0E94A4018E
S11315108E2D0E94A4018B2D0E94A4018B2D0E946C
S1131520A401D3948BE0D81611F00E2DDECF439492
S11315306AE58EE20E946301842D0E94A40186E084
S1131540481621F06894DD24D1F8EFCF53945394D6
S11315506AE582E20E946301852D0E94A401872D21
S11315600E94A40184E0581279CF83946AE58CE147
S11315700E946301882D0E94A40182E0881621F054
S1131580512C9E2CFE2C6ACFA39465E085E00E942A
S11315904F016AE58EE10E9463018A2D0E94A40135
S11315A082E0A81621F0812C762CE62CE9CF81E08C
S11315B00E94820010928903DF91CF911F910F91B5
S11315C0FF90EF90DF90CF90BF90AF909F908F905F
S11315D07F906F905F904F903F9008951F920F926D
S11315E00FB60F9211242F933F934F935F936F93F2
S11315F07F938F939F93AF93BF93EF93FF938DB399
S11316008DBB809186038F5F809386032FEF81EFDC
S11316109BE2215080409040E1F700C0000044DE8E
S1131620FF91EF91BF91AF919F918F917F916F91B6
S11316305F914F913F912F910F900FBE0F901F908C
S113164018950E9477010E940E0269DC8DB3809385
S11316508F03FBDB9DDC85B180938F03F6DBD1DC4C
S113166085B780938F03F1DB05DD84B780938F0307
S1131670ECDB39DD8091690080938F03E6DB6CDD60
S11316808AB180938F03E1DBA0DD8BB180938F035C
S1131690DCDBD4DD8CB380938F03D7CB08958091AA
S11316A08703813029F51092870380918603833064
S11316B091F028F4813049F0823051F0089585305A
S11316C089F068F0863089F00895BBDFE99A0895BF
S11316D0A2DEE99A08950E943002E99A08953FD85B
S11316E0E99A0895A9D9E99A089561DAE99A0895D9
S11316F081E00C94AC0008951F920F920FB60F92E4
S113170011242F933F934F935F936F937F938F9302
S11317109F93AF93BF93EF93FF938DB38DBB81E002
S1131720809387032FEF81EF9BE22150804090400C
S1131730E1F700C00000B3DFFF91EF91BF91AF91DB
S11317409F918F917F916F915F914F913F912F91D5
S11317500F900FBE0F901F9018958FEF8BB98AB121
S1131760837F8AB9E9E6F0E0808180838DB383606A
S11317708DBB08958FEF84B987B98AB917B891E002
S113178095B99BB988B982E08093B80083E08093CF
S1131790B9000E94F7000E9406010E9418018FEA16
S11317A0809334020E943C010E94180181E88093D6
S11317B034020E943C010E9418018FE0809334029D
S11317C00E943C010E9418018DE8809334020E941B
S11317D03C010E94180184E1809334020E943C0180
S11317E00E94180186EA809334020E943C012FEF84
S11317F082E191E0215080409040E1F700C0000078
S113180084E98093BC000E94F7000E9406010E94B4
S11318100E0285E00E94AC00A0DF789488DD44DDF0
S113182083E00E948200FACF71D008F481E0089529
S113183004D06894B111B1C0089594D088F09F5732
S113184090F0B92F9927B751A0F0D1F0660F771F08
S1131850881F991F1AF0BA95C9F712C0B13081F0E8
S11318609BD0B1E0089598C0672F782F8827B85F80
S113187039F0B93FCCF3869577956795B395D9F749
S11318803EF490958095709561957F4F8F4F9F4F53
S11318900895E89409C097FB3EF49095809570955F
S11318A061957F4F8F4F9F4F9923A9F0F92F96E9A8
S11318B0BB279395F695879577956795B795F1111D
S11318C0F8CFFAF4BB0F11F460FF1BC06F5F7F4FBA
S11318D08F4F9F4F16C0882311F096E911C07723CC
S11318E021F09EE8872F762F05C0662371F096E8D5
S11318F0862F70E060E02AF09A95660F771F881FA4
S1131900DAF7880F9695879597F90895990F000847
S1131910550FAA0BE0E8FEEF16161706E807F907BD
S1131920C0F012161306E407F50798F0621B730B58
S1131930840B950B39F40A2661F0232B242B252BD9
S113194021F408950A2609F4A140A6958FEF811D7C
S1131950811D089557FD9058440F551F59F05F3F5E
S113196071F04795880F97FB991F61F09F3F79F0BD
S113197087950895121613061406551FF2CF46953F
S1131980F1DF08C0161617061806991FF1CF8695C1
S11319907105610508940895E894BB2766277727A5
S11319A0CB0197F90895B2DF08F48FEF08950BD0B7
S11319B078C069D028F06ED018F0952309F05AC089
S11319C05FC01124EACFC6DFA0F3959FD1F3950F32
S11319D050E0551F629FF001729FBB27F00DB11DAF
S11319E0639FAA27F00DB11DAA1F649F6627B00D3F
S11319F0A11D661F829F2227B00DA11D621F739F28
S1131A00B00DA11D621F839FA00D611D221F749F35
S1131A103327A00D611D231F849F600D211D822F7C
S1131A20762F6A2F11249F5750408AF0E1F08823C3
S1131A304AF0EE0FFF1FBB1F661F771F881F9150D0
S1131A405040A9F79E3F510570F014C0A6CF5F3FE8
S1131A50ECF3983EDCF3869577956795B795F79503
S1131A60E7959F5FC1F7FE2B880F911D969587958B
S1131A7097F9089597F99F6780E870E060E008950A
S1131A809FEF80EC089500240A9416161706180692
S1131A900906089500240A9412161306140605066E
S1131AA00895092E0394000C11F4882352F0BB0FFF
S1131AB040F4BF2B11F460FF04C06F5F7F4F8F4F62
S1131AC09F4F0895BB274A3031F4992322F4BDE295
S1131AD0909581959F4F01C0BB27FB015527AA27ED
S1131AE0880F991FAA1FA41710F0A41B83955051A7
S1131AF0B9F7A05DAA3308F0A95DA193009779F71F
S1131B00B111B1931192CB0100C0DC01FC01672F2C
S1131B1071917723E1F7329704C07C916D937083C0
S1111B206291AE17BF07C8F30895F894FFCF83
S1131B2E07000036360000003E5149453E00004293
S1131B3E7F4000004261514946002141454B31002E
S1131B4E1814127F10002745454539003C4A49496F
S1131B5E300001710905030036494949360006492A
S1131B6E49291E0000606000000000563600000087
S1131B7E08142241000014141414140000412214F9
S1131B8E0800020151090600324959513E007C12E7
S1131B9E11127C007F49494936003E4141412200E1
S1131BAE7F4141221C007F49494941007F090909AF
S1131BBE01003E4149497A007F0808087F00004130
S1131BCE7F4100002040413F01007F081422410064
S1131BDE7F40404040007F020C027F007F040810CB
S1131BEE7F003E4141413E007F09090906003E4106
S1131BFE51215E007F0919294600464949493100A1
S1131C0E01017F0101003F4040403F001F20402062
S1131C1E1F003F4038403F00631408146300070858
S1131C2E70080700615149454300007F414100009F
S1131C3E552A552A55000041417F00FFFFFFFFFF43
S1131C4EFF0000000000000008083E080800080815
S1131C5E08080801AFF6F7F8F9FAFBFCFDFEFF00E1
S1131C6E0102030405060708090A0B0C0D0E0F10DA
S1131C7E1112131415161718191A1B1C1D1E1F20CA
S1131C8E2122232425262728220EF20DD40DB60D4B
S1131C9E980D7A0D660D520D3E0D2A0DC60CA30C31
S1131CAE7B0C530C2B0C030CD70BAF0B870B5F0B5E
S1131CBE370B040BDC0AB40A8C0A640A280A000ADD
S1131CCED809B00988095B0933090B09E308BB0875
S1131CDE8E0866083E081608EE07C6079E077607A6
S1131CEE4E0726070D07E506BD0695066D065355E8
S1131CFE4E44415900000000004D4F4E44415900DE
S1131D0E000000005455455344415900000000574B
S1131D1E45444E455344415900005448555253448A
S1131D2E4159000000465249444159000000000048
S1131D3E4C494E52454753545741444341445454DD
S1131D4E430056544356303A303A340044443A48E9
S1131D5E483A4D4D3A53530030303A30303A3030E1
S1131D6E3A30300045494D534B3A3A00504F525495
S1131D7E423A3A004D435543523A3A004D43555375
S1131D8E523A3A0045494352413A3A004444524485
S1131D9E3A3A3A00504F5254443A00454946523A60
S1051DAE00002F
S9030000FC
