:1000000033C000007FC6000007C7000049C00000E1
:1000100047C0000045C0000043C0000041C00000D0
:100020003FC000003DC000003BC000007FC5000095
:1000300037C0000035C0000033C0000031C00000F0
:100040002FC000002DC000002BC0000029C0000000
:1000500027C0000025C0000023C0000021C0000010
:100060001FC000001DC0000011241FBECFEFD8E04C
:10007000DEBFCDBF12E0A0E0B1E0E8E9F2E102C0EE
:1000800005900D92A43EB107D9F722E0A4EEB2E0AC
:1000900001C01D92AC3EB207E1F7FCD60C944A09B0
:1000A000AFCFEAE7F0E0808187688083ECE7F0E09B
:1000B0008081806C80830895EAE7F0E0808180642D
:1000C0008083808186FDFDCF8091780090917900BA
:1000D000089590E0181619062CF520E030E042E073
:1000E0005FEF65EA7EE0515060407040E1F700C08C
:1000F000000045B95FEF65EA7EE051506040704016
:10010000E1F700C0000015B85FEF65EA7EE05150EE
:1001100060407040E1F700C000002F5F3F4F28179C
:100120003907F1F6089590E0181619062CF520E02D
:1001300030E041E05FEF63EC79E0515060407040A7
:10014000E1F700C0000045B95FEF63EC79E0515082
:1001500060407040E1F700C0000015B85FEF63EC4D
:1001600079E0515060407040E1F700C000002F5F1F
:100170003F4F28173907F1F6089590E01816190631
:100180009CF420E030E040E84BB95FEF69EF70E0AD
:10019000515060407040E1F700C000001BB82F5F75
:1001A0003F4F2817390781F7089583E0BCCF0895A2
:1001B00086E0B9CF089589E0B6CF089584EA8093A8
:1001C000BC00ECEBF0E080818823ECF78091B90073
:1001D000887F883009F0E9CF089588E78093BB00D5
:1001E00084E88093BC00ECEBF0E080818823ECF79E
:1001F0008091B900887F883109F0DACF089580E8CE
:100200008093BB0084E88093BC00ECEBF0E080813D
:100210008823ECF78091B900887F883209F0CBCF32
:10022000089580EC8093BB0084E88093BC00ECEBE5
:10023000F0E080818823ECF78091B900887F8832D4
:1002400009F0B9CF089580912E028093BB0084E815
:100250008093BC00ECEBF0E080818823ECF7809188
:10026000B900887F883209F0A6CF0895CF93DF9335
:10027000D82FC62FC4DF82E280932E02E4DFBFDFD7
:10028000D0932E02E0DFBBDFC0932E02DCDFDF91D4
:10029000CF910895CF93DF93D82FC62FB0DF81E29F
:1002A00080932E02D0DFABDFD0932E02CCDFA7DF0E
:1002B000C0932E02C8DFDF91CF910895A0DF8FE7B2
:1002C00080932E02C0DF9BDF80E280932E02BBDF93
:1002D00096DF10922E02B7DF67E080E0C7DF6FE79E
:1002E00080E0D8DF8CDF80E480932E02ACDF87DFF4
:1002F00084EA80932E02A7DF82DF86EA80932E02B3
:10030000A2DF2FEF82E191E0215080409040E1F7A1
:1003100000C0000008951F93CF93DF9390E0EC019D
:10032000CC0FDD1FC80FD91FCC0FDD1FCF5FDE4FF5
:1003300010E077DF899180932E0285DF1F5F1630F2
:10034000C1F781E01ADFDF91CF911F910895EF92FD
:10035000FF920F931F93CF93DF93CDB7DEB728970C
:100360000FB6F894DEBF0FBECDBF6FE785E592DF15
:1003700067E087E07BDF88E0E6E8F2E0DE011196E7
:1003800001900D928A95E1F78E010F5F1F4F7E015C
:1003900088E0E80EF11CF80181918F018F52BBDFDC
:1003A0000E151F05C1F728960FB6F894DEBF0FBED5
:1003B000CDBFDF91CF911F910F91FF90EF900895E6
:1003C0000F931F93CF93DF9379DF8091E602811122
:1003D0000FC00EEA10E00EC080E39DDF2196C0172B
:1003E000D107D4F38091E6028F5F8093E60205C0C7
:1003F00003EA10E0C0E0D0E0EFCFDF91CF911F9192
:100400000F910895CF92DF92EF92FF920F931F9377
:10041000CF93DF93CDB7DEB72A970FB6F894DEBF40
:100420000FBECDBFCDDF3DDE7E012AE0E20EF11C26
:1004300043DE9093EA028093E902BC0180E090E001
:1004400005D620E030EE4BE251E48ED620E030ECD1
:100450004FE854E465D5C9D5DC01CB014AE0BE01C3
:100460006F5F7F4FE4D68091E402833041F5C12C69
:10047000D12C6D2D8D2DFADE64E68C2D0BDF8E01D7
:100480000F5F1F4FF80181918F018F5244DF0E15CE
:100490001F05C1F78BE03FDF8BE03DDF8BE03BDFEB
:1004A000D394FFEF23ED80E3F15020408040E1F74B
:1004B00000C0000096E0C90ED912DBCFB9CF2A9652
:1004C0000FB6F894DEBF0FBECDBFDF91CF911F9165
:1004D0000F91FF90EF90DF90CF900895CF93DF932F
:1004E000EDDEC3EAD0E08FE216DF2197E1F7DF917E
:1004F000CF910895CF93E2DE63DF6CE48BE0CADE38
:1005000065E080E0B3DEC0E08C2F05DFCF5FC03355
:10051000D9F7CF910895EF92FF920F931F93CF9346
:10052000DF93CDB7DEB768970FB6F894DEBF0FBE86
:10053000CDBF6AE58AE0AEDE63E083E097DE8CE063
:10054000EEE8F2E0DE01119601900D928A95E1F756
:100550008E010F5F1F4F7E018CE0E80EF11CF80149
:1005600081918F018F52D7DE0E151F05C1F764E010
:1005700084E07CDE6AE58AE08DDE8CE0EAE9F2E088
:10058000DE011D9601900D928A95E1F78E01035FC1
:100590001F4F7E01F8E1EF0EF11CF80181918F01F0
:1005A0008F52B9DE0E151F05C1F768960FB6F89485
:1005B000DEBF0FBECDBFDF91CF911F910F91FF9096
:1005C000EF9008951F93CF93DF93CDB7DEB72897B1
:1005D0000FB6F894DEBF0FBECDBF20E8280F1AF08B
:1005E00082E0888703C091E09887282F90EC920FD3
:1005F0001AF082E08F8303C081E08F83922F80EE18
:10060000890F1AF092E09E8303C081E08E83892FC8
:1006100090EF980F1AF082E08D8303C091E09D83E4
:10062000982F88EF890F1AF092E09C8303C081E035
:100630008C83892F9CEF980F1AF082E08B8303C084
:1006400091E09B83982F8EEF890F1AF092E09A83A6
:1006500003C081E08A83892F81501AF082E0898368
:100660000FC081E089830CC01150E1E0F0E0EC0F95
:10067000FD1FE10FF11D80814EDE1111F5CF02C08B
:1006800018E0F2CF28960FB6F894DEBF0FBECDBFAC
:10069000DF91CF911F910895EF92FF920F931F93D7
:1006A000CF93DF93CDB7DEB728970FB6F894DEBFB0
:1006B0000FBECDBF88E0E6EAF2E0DE0111960190C0
:1006C0000D928A95E1F761E080E0D0DD64E581E09C
:1006D000E1DD8E010F5F1F4F7E0187E0E80EF11C08
:1006E000F80181918F018F5216DE0E151F05C1F79B
:1006F00028960FB6F894DEBF0FBECDBFDF91CF9125
:100700001F910F91FF90EF900895EF92FF920F933A
:100710001F93CF93DF93CDB7DEB728970FB6F8942A
:10072000DEBF0FBECDBF88E0EEEAF2E0DE0111963B
:1007300001900D928A95E1F761E081E097DD64E533
:1007400081E0A8DD8E010F5F1F4F7E0187E0E80E7C
:10075000F11CF80181918F018F52DDDD0E151F050F
:10076000C1F728960FB6F894DEBF0FBECDBFDF915C
:10077000CF911F910F91FF90EF900895EF92FF920C
:100780000F931F93CF93DF93CDB7DEB728970FB6A4
:10079000F894DEBF0FBECDBF88E0E6EBF2E0DE01ED
:1007A000119601900D928A95E1F762E082E05EDD9C
:1007B00064E581E06FDD8E010F5F1F4F7E0187E0F2
:1007C000E80EF11CF80181918F018F52A4DD0E1506
:1007D0001F05C1F728960FB6F894DEBF0FBECDBF38
:1007E000DF91CF911F910F91FF90EF900895EF92BD
:1007F000FF920F931F93CF93DF93CDB7DEB7289768
:100800000FB6F894DEBF0FBECDBF88E0EEEBF2E08E
:10081000DE01119601900D928A95E1F763E083E085
:1008200025DD64E581E036DD8E010F5F1F4F7E011F
:1008300087E0E80EF11CF80181918F018F526BDD8A
:100840000E151F05C1F728960FB6F894DEBF0FBE30
:10085000CDBFDF91CF911F910F91FF90EF90089541
:10086000EF92FF920F931F93CF93DF93CDB7DEB735
:1008700028970FB6F894DEBF0FBECDBF88E0E6EC38
:10088000F2E0DE01119601900D928A95E1F764E0A5
:1008900084E0ECDC64E581E0FDDC8E010F5F1F4F3E
:1008A0007E0187E0E80EF11CF80181918F018F52E3
:1008B00032DD0E151F05C1F728960FB6F894DEBF7E
:1008C0000FBECDBFDF91CF911F910F91FF90EF90A1
:1008D0000895EF92FF920F931F93CF93DF93CDB7BD
:1008E000DEB728970FB6F894DEBF0FBECDBF88E005
:1008F000EEECF2E0DE01119601900D928A95E1F79F
:1009000065E085E0B3DC64E581E0C4DC8E010F5F67
:100910001F4F7E0187E0E80EF11CF80181918F01E5
:100920008F52F9DC0E151F05C1F728960FB6F89403
:10093000DEBF0FBECDBFDF91CF911F910F91FF9012
:10094000EF900895EF92FF920F931F93CF93DF9351
:10095000CDB7DEB727970FB6F894DEBF0FBECDBF79
:1009600087E0E6EDF2E0DE01119601900D928A95A6
:10097000E1F766E086E07ADC64E581E08BDC8E01FD
:100980000F5F1F4F7E0187E0E80EF11CF801819197
:100990008F018F52C0DC0E151F05C1F727960FB6C9
:1009A000F894DEBF0FBECDBFDF91CF911F910F91A5
:1009B000FF90EF900895EF92FF920F931F93CF93C4
:1009C000DF9300D000D000D0CDB7DEB786E0EDEDEC
:1009D000F2E0DE01119601900D928A95E1F767E051
:1009E00087E044DC64E581E055DC8E010F5F1F4F3A
:1009F0007E0186E0E80EF11CF80181918F018F5293
:100A00008ADC0E151F05C1F726960FB6F894DEBFD7
:100A10000FBECDBFDF91CF911F910F91FF90EF904F
:100A2000089560E080E022DC6FE784E733DC8091AA
:100A3000E4028F5F70DC8091E4028230D0F06FE7D7
:100A400084E728DC8091E4028150682F0FDC10924B
:100A50002D0280E360DC80912D028F5F80932D0258
:100A60008230B8F38091E402873018F081E08093FF
:100A7000E4026FE784E70EDC8091E402682FF6DB86
:100A80008DE049DC8EE047DCE89A2FEF89E698E1BB
:100A9000215080409040E1F700C000000895CF92BF
:100AA000DF92EF92FF920F931F93CF93DF93CDB717
:100AB000DEB765970FB6F894DEBF0FBECDBF85E1F8
:100AC000E1E7F2E0DE01119601900D928A95E1F7DF
:100AD000CE0101966C0100E00093E8020093000152
:100AE000602F802FC3DB6AE688E5D4DB760110E057
:100AF000F70181917F018F520EDC1F5F1330C1F728
:100B00000F5FF3E0CF0ED11C073031F720DC659684
:100B10000FB6F894DEBF0FBECDBFDF91CF911F910E
:100B20000F91FF90EF90DF90CF9008951F920F925A
:100B30000FB60F9211248F938091E7028F5F8093FD
:100B4000E7028F910F900FBE0F901F901895789429
:100B500089E09DE39093890080938800E1E8F0E0CC
:100B600080818D608083EFE6F0E080818260808309
:100B700008953F924F925F926F927F928F929F92D1
:100B8000AF92BF92CF92DF92EF92FF920F931F939B
:100B9000CF93DF9315DC83DFBEDCD9DF8091840047
:100BA00090918500A12C612CCFE6D0E0CC24C39499
:100BB000BC2C1C2D8DC08C2DB6DA8C2D8ADA8C2D98
:100BC000DCDA412C5CC08091E402823009F084C000
:100BD00064E084E04BDB6AE586E45CDBA895809109
:100BE000E7028F5F98DB812F9091E7029A3008F43B
:100BF0008F2D882331F0812F023009F08F2D811144
:100C000022C08881826088838091E7028A30D8F28E
:100C100033243394300E9092E7026AE580E43ADBA5
:100C200082E0800F78DB812F76DB86E0381659F082
:100C3000032D8091E7028A3058F78091E4028230D8
:100C400009F04AC0C5CFE092E7026AE584E322DBFF
:100C50008D2D61DB8E2D5FDB8B2D5DDB8B2D5BDBCB
:100C6000D3948BE0D81611F00E2DE3CF43946AE5B0
:100C70008EE210DB842D4FDB86E0481621F068946D
:100C8000DD24D1F8F1CF539453946AE582E202DB7C
:100C9000852D41DB872D3FDB84E058128CCF839478
:100CA0006AE58CE1F7DA882D36DB82E0881621F0E0
:100CB000512C9E2CFE2C7FCFA39465E085E0D6DAE4
:100CC0006AE58EE1E7DA8A2D26DB82E0A81621F0BC
:100CD000812C762CE62CECCF81E0FBD91092E70238
:100CE000DF91CF911F910F91FF90EF90DF90CF9008
:100CF000BF90AF909F908F907F906F905F904F903C
:100D00003F9008951F920F920FB60F9211242F93C8
:100D10003F934F935F936F937F938F939F93AF9383
:100D2000BF93EF93FF938DB38DBB8091E4028F5FF0
:100D30008093E4022FEF81EF9BE2215080409040AE
:100D4000E1F700C000006DDEFF91EF91BF91AF9120
:100D50009F918F917F916F915F914F913F912F91D3
:100D60000F900FBE0F901F901895A8DA29DB94DC26
:100D70008DB38093EB0226DCC8DC85B18093EB0257
:100D800021DCFCDC85B78093EB021CDC30DD84B712
:100D90008093EB0217DC64DD809169008093EB02A5
:100DA00011DC97DD8AB18093EB020CDCCBDD8BB1DB
:100DB0008093EB0207DCFFDD8CB38093EB0202CC67
:100DC00008958091E502813021F51092E50280912D
:100DD000E402833091F028F4813049F0823051F000
:100DE0000895853081F060F0863081F00895BDDF90
:100DF000E99A0895BEDEE99A089504DBE99A089518
:100E000079DBE99A08956ADBE99A0895D9DAE99AD3
:100E1000089581E088C908951F920F920FB60F922E
:100E200011242F933F934F935F936F937F938F93EF
:100E30009F93AF93BF93EF93FF938DB38DBB81E0EF
:100E40008093E5022FEF81EF9BE22150804090409C
:100E5000E1F700C00000B5DFFF91EF91BF91AF91C6
:100E60009F918F917F916F915F914F913F912F91C2
:100E70000F900FBE0F901F9018958FEF8BB98AB10E
:100E8000837F8AB9E9E6F0E0808180838DB3836057
:100E90008DBB08958FEF84B987B98AB981E085B990
:100EA0008BB988B982E08093B80083E08093B90061
:100EB00085D993D9A4D98FEA80932E02C4D99FD91A
:100EC00081E880932E02BFD99AD98FE080932E02B9
:100ED000BAD995D98DE880932E02B5D990D984E1FD
:100EE00080932E02B0D98BD986EA80932E02ABD99B
:100EF0002FEF82E191E0215080409040E1F700C067
:100F0000000084E98093BC0059D967D959DA85E09B
:100F10000AD9B3DF7894C3DD84DD83E0DAD8FBCF70
:100F20005058BB27AA270ED0E5C0D6D030F0DBD072
:100F300020F031F49F3F11F41EF4CBC00EF4E09585
:100F4000E7FBC1C0E92FE7D080F3BA176207730748
:100F50008407950718F071F49EF5FFC00EF4E09534
:100F60000B2EBA2FA02D0B01B90190010C01CA0163
:100F7000A0011124FF27591B99F0593F50F4503E0E
:100F800068F11A16F040A22F232F342F4427585F00
:100F9000F3CF469537952795A795F0405395C9F718
:100FA0007EF41F16BA0B620B730B840BBAF09150D0
:100FB000A1F0FF0FBB1F661F771F881FC2F70EC06F
:100FC000BA0F621F731F841F48F487957795679542
:100FD000B795F7959E3F08F0B3CF9395880F08F02B
:100FE0009927EE0F97958795089504D06894B111CD
:100FF000B5C0089598D088F09F5790F0B92F9927E1
:10100000B751A0F0D1F0660F771F881F991F1AF013
:10101000BA95C9F712C0B13081F09FD0B1E0089500
:101020009CC0672F782F8827B85F39F0B93FCCF381
:10103000869577956795B395D9F73EF49095809509
:10104000709561957F4F8F4F9F4F0895E89409C029
:1010500097FB3EF490958095709561957F4F8F4FEB
:101060009F4F9923A9F0F92F96E9BB279395F69501
:10107000879577956795B795F111F8CFFAF4BB0F7F
:1010800011F460FF1BC06F5F7F4F8F4F9F4F16C0E3
:10109000882311F096E911C0772321F09EE8872F6D
:1010A000762F05C0662371F096E8862F70E060E029
:1010B0002AF09A95660F771F881FDAF7880F9695A2
:1010C000879597F9089597F99F6780E870E060E049
:1010D00008959FEF80EC089500240A9416161706D1
:1010E00018060906089500240A9412161306140619
:1010F00005060895092E0394000C11F4882352F07C
:10110000BB0F40F4BF2B11F460FF04C06F5F7F4F33
:101110008F4F9F4F089557FD9058440F551F59F01A
:101120005F3F71F04795880F97FB991F61F09F3FD4
:1011300079F087950895121613061406551FF2CFFD
:101140004695F1DF08C0161617061806991FF1CF4D
:1011500086957105610508940895E894BB27662774
:101160007727CB0197F908950BD0C4CFB5DF28F0CE
:10117000BADF18F0952309F0A6CFABCF1124EECF3C
:10118000CADFA0F3959FD1F3950F50E0551F629FE2
:10119000F001729FBB27F00DB11D639FAA27F00DD0
:1011A000B11DAA1F649F6627B00DA11D661F829FF7
:1011B0002227B00DA11D621F739FB00DA11D621FDC
:1011C000839FA00D611D221F749F3327A00D611DF9
:1011D000231F849F600D211D822F762F6A2F1124DB
:1011E0009F5750408AF0E1F088234AF0EE0FFF1F2E
:1011F000BB1F661F771F881F91505040A9F79E3F65
:10120000510570F060CFAACF5F3FECF3983EDCF35E
:10121000869577956795B795F795E7959F5FC1F7A1
:10122000FE2B880F911D9695879597F90895BB27FA
:101230004A3031F4992322F4BDE2909581959F4F75
:1012400001C0BB27FB015527AA27880F991FAA1F9A
:10125000A41710F0A41B83955051B9F7A05DAA33D1
:1012600008F0A95DA193009779F7B111B19311929C
:10127000CB0100C0DC01FC01672F71917723E1F7FE
:10128000329704C07C916D9370836291AE17BF0753
:08129000C8F30895F894FFCFA4
:1012980007000036360000003E5149453E00004236
:1012A8007F4000004261514946002141454B3100D1
:1012B8001814127F10002745454539003C4A494912
:1012C80030000171090503003649494936000649CD
:1012D80049291E000060600000000056360000002A
:1012E800081422410000141414141400004122149C
:1012F8000800020151090600324959513E007C128A
:1013080011127C007F49494936003E414141220083
:101318007F4141221C007F49494941007F09090951
:1013280001003E4149497A007F0808087F000041D2
:101338007F4100002040413F01007F081422410006
:101348007F40404040007F020C027F007F0408106D
:101358007F003E4141413E007F09090906003E41A8
:1013680051215E007F091929460046494949310043
:1013780001017F0101003F4040403F001F20402005
:101388001F003F4038403F006314081463000708FB
:1013980070080700615149454300007F4141000042
:1013A800552A552A55000041417F00FFFFFFFFFFE6
:1013B800FF0000000000000008083E080801AF53C5
:1013C800554E44415900000000004D4F4E444159CC
:1013D80000000000005455455344415900000000E6
:1013E8005745444E455344415900005448555253BB
:1013F8004441590000004652494441590000000048
:10140800004C494E52454753545741444343485270
:10141800524E44434C5356323A363A3131004444E2
:101428003A48483A4D4D3A53530030302E30302E1A
:1014380030302E30300045494D534B3A3A00504F2A
:101448005254423A3A004D435543523A3A004D43BA
:101458005553523A3A0045494352413A3A004444B6
:1014680052443A3A3A00504F5254443A0045494699
:04147800523A0000E4
:00000001FF
