:1000000033C000000C9456090C94E2094AC0000069
:1000100048C0000046C0000044C0000042C00000CC
:1000200040C000003EC000003CC000000C946708C7
:1000300038C0000036C0000034C0000032C00000EC
:1000400030C000002EC000002CC000002AC00000FC
:1000500028C0000026C0000024C0000022C000000C
:1000600020C000001EC0000011241FBECFEFD8E04A
:10007000DEBFCDBF12E0A0E0B1E0E4ECF8E102C0E9
:1000800005900D92A23EB107D9F722E0A2EEB2E0B0
:1000900001C01D92A03FB207E1F70E94200A0C9414
:1000A000600CAECFEAE7F0E0808187688083ECE700
:1000B000F0E08081806480830895EAE7F0E0808149
:1000C00080648083808186FDFDCF8091780090914F
:1000D00079000895EAE7F0E0808187688083ECE7A3
:1000E000F0E08081816480830895EAE7F0E0808118
:1000F00080648083808186FDFDCF8091780090911F
:100100007900089590E0181619062CF520E030E0EB
:1001100042E05FEF65EA7EE0515060407040E1F7F9
:1001200000C0000045B95FEF65EA7EE051506040D5
:100130007040E1F700C0000015B85FEF65EA7EE0AF
:10014000515060407040E1F700C000002F5F3F4F0A
:1001500028173907F1F6089590E0181619062CF5BE
:1001600020E030E041E05FEF63EC79E05150604027
:100170007040E1F700C0000045B95FEF63EC79E043
:10018000515060407040E1F700C0000015B85FEFCB
:1001900063EC79E0515060407040E1F700C000002E
:1001A0002F5F3F4F28173907F1F6089590E0181692
:1001B00019069CF420E030E040E84BB95FEF69EFAE
:1001C00070E0515060407040E1F700C000001BB883
:1001D0002F5F3F4F2817390781F7089583E0BCCF81
:1001E000089586E0B9CF089589E0B6CF089584EAEE
:1001F0008093BC00ECEBF0E080818823ECF78091E9
:10020000B900887F883009F0E9CF089588E78093A6
:10021000BB0084E88093BC00ECEBF0E08081882395
:10022000ECF78091B900887F883109F0DACF089522
:1002300080E88093BB0084E88093BC00ECEBF0E0A6
:1002400080818823ECF78091B900887F883209F09B
:10025000CBCF089580EC8093BB0084E88093BC00F2
:10026000ECEBF0E080818823ECF78091B900887F87
:10027000883209F0B9CF089580912E028093BB0097
:1002800084E88093BC00ECEBF0E080818823ECF7FD
:100290008091B900887F883209F0A6CF0895CF9366
:1002A000DF93D82FC62FC4DF82E280932E02E4DFD3
:1002B000BFDFD0932E02E0DFBBDFC0932E02DCDF76
:1002C000DF91CF910895CF93DF93D82FC62FB0DF62
:1002D00081E280932E02D0DFABDFD0932E02CCDF01
:1002E000A7DFC0932E02C8DFDF91CF910895A0DF72
:1002F0008FE780932E02C0DF9BDF80E280932E0287
:10030000BBDF96DF10922E02B7DF67E080E0C7DF29
:100310006FE780E0D8DF8CDF80E480932E02ACDFD3
:1003200087DF84EA80932E02A7DF82DF86EA80934C
:100330002E02A2DF2FEF82E191E021508040904019
:10034000E1F700C0000008951F93CF93DF9390E082
:10035000EC01CC0FDD1FC80FD91FCC0FDD1FCF5F05
:10036000DE4F10E077DF899180932E0285DF1F5FDB
:100370001630C1F781E01ADFDF91CF911F91089508
:10038000DF92EF92FF920F931F93CF93DF93CDB73E
:10039000DEB727970FB6F894DEBF0FBECDBF6FE76D
:1003A00085E591DF67E087E07ADF87E0E6E8F2E065
:1003B000DE01119601900D928A95E1F789818F52A5
:1003C0007E0192E0E90EF11C10E001E0D12C14C096
:1003D000F70181917F0120ED280F902F2A3008F43A
:1003E0009D2D992331F0902F163008F49D2D9111F9
:1003F00002C08F5201C080E3A7DF1F5F173041F7B3
:1004000027960FB6F894DEBF0FBECDBFDF91CF9118
:100410001F910F91FF90EF90DF9008950F931F931E
:10042000CF93DF9364DF8091E80281110FC00EEA61
:1004300010E00EC080E388DF2196C017D107D4F307
:100440008091E8028F5F8093E80205C003EA10E024
:10045000C0E0D0E0EFCFDF91CF911F910F910895D1
:100460004F925F926F927F929F92AF92BF92CF9284
:10047000DF92EF92FF920F931F93CF93DF93CDB74D
:10048000DEB72E970FB6F894DEBF0FBECDBFC6DF26
:1004900009DE0F2EF4E6AF2EF02D1B861C861D867E
:1004A0001E86BB24B394912C6E0187E0C80ED11C2C
:1004B00004DE9093E5028093E402BC0180E090E0CA
:1004C0000E94140B25E83BEE49E85BE30E94CA0B4F
:1004D00020E030E04AE754E40E94CA0B2B013C01C3
:1004E0001B2D20E030E0A9010E94C60B18160CF06D
:1004F000192D1123C9F020E030E048E454E4C30191
:10050000B2010E94DF0A880F880B8B2169F02EEF61
:1005100034ED48E35FE3C301B2010E94CA0B6B876D
:100520007C878D879E87BFC01B2D20E030E048E48C
:1005300054E4C301B2010E94C60B18160CF0192D29
:100540001123C9F020E030E842EA54E4C301B201CB
:100550000E94DF0A880F880B8B2169F023EE35EAB1
:100560004BE55FE3C301B2010E94CA0B6B877C8736
:100570008D879E8798C01B2D20E030E844ED54E421
:10058000C301B2010E94C60B18160CF0192D1123DD
:10059000C9F020E030E44CE155E4C301B2010E940F
:1005A000DF0A880F880B8B2169F028E431EE4AE7D7
:1005B0005FE3C301B2010E94CA0B6B877C878D8702
:1005C0009E8771C01B2D20E030E44CE155E4C3014F
:1005D000B2010E94C60B18160CF0192D1123C1F0A0
:1005E00020E030E44EE455E4C301B201E8D7880FBF
:1005F000880B8B2169F021EC3AEC41E85FE3C30101
:10060000B2010E94CA0B6B877C878D879E874BC087
:100610001B2D20E030E447E655E4C301B2010E94FF
:10062000C60B18160CF0192D1123C1F020E030E68E
:1006300046E855E4C301B201C2D7880F880B8B216D
:1006400069F027EC3BE447E85FE3C301B2010E9495
:10065000CA0B6B877C878D879E8725C01B2D20E06A
:1006600030E646E855E4C301B2010E94C60B1816F5
:100670000CF0192D1123B9F020E030E44CE955E4D9
:10068000C301B2019CD7880F880B8B2161F024E550
:1006900033EE45E85FE3C301B2010E94CA0B6B87EA
:1006A0007C878D879E87EFE9FFE03197F1F700C0E7
:1006B00000006B857C858D859E8585D7DC01CB010F
:1006C0004AE0BE016F5F7F4F0E942D0CE12CF12CA0
:1006D0006F2D8F2DE4DD64E68E2DF5DD8E010F5F2D
:1006E0001F4FF80181918F0190ED980F9A3010F40F
:1006F0008F5201C080E328DE8091E602833019F436
:100700000C151D0571F78BE01FDE8BE01DDE8BE005
:100710001BDEF394F6E0EF0EFF12DACF87E214DE71
:10072000AA94A110C5CE2E960FB6F894DEBF0FBEC8
:10073000CDBFDF91CF911F910F91FF90EF90DF9090
:10074000CF90BF90AF909F907F906F905F904F90B1
:1007500008952F923F924F925F926F927F928F9265
:100760009F92AF92BF92CF92DF92EF92FF920F9340
:100770001F93CF93DF93CDB7DEB72A970FB6F894C8
:10078000DEBF0FBECDBF4ADEA5DC0F2EF4E68F2EF6
:10079000F02D99249394312C0F2EFAE02F2EF02D6A
:1007A000CE0101966C017E0197E0E90EF11C9DDC03
:1007B0009093E3028093E202BC0180E090E034D7A2
:1007C00025E83BEE49E85BE3E5D720E030E04AE787
:1007D00054E4E0D720E030E046E953E48CD62B0126
:1007E0003C016093EB027093EC028093ED029093D6
:1007F000EE02192D20E030E0A901C8D718160CF040
:10080000132D112399F020E030E048E454E4C301B3
:10081000B201D5D6880F880B892141F02AE939E940
:1008200049E15FE3C301B201B5D7E3C0192D20E070
:1008300030E048E454E4C301B201A8D718160CF024
:10084000132D112399F020E030E842EA54E4C3016B
:10085000B201B5D6880F880B892141F02DE232EB29
:100860004DE35FE3C301B20195D7C3C0192D20E06A
:1008700030E842EA54E4C301B20188D718160CF0FC
:10088000132D112399F020E030E844ED54E4C30126
:10089000B20195D6880F880B892141F02DE73FE3FF
:1008A00045E55FE3C301B20175D7A3C0192D20E070
:1008B00030E844ED54E4C301B20168D718160CF0D7
:1008C000132D112399F020E030E44CE155E4C301ED
:1008D000B20175D6880F880B892141F027E339E8EA
:1008E00041E65FE3C301B20155D783C0192D20E073
:1008F00030E44CE155E4C301B20148D718160CF0BE
:10090000132D112399F020E030E44EE455E4C301A7
:10091000B20155D6880F880B892141F022EA35E4CF
:1009200046E75FE3C301B20135D763C0192D20E06C
:1009300030E44EE455E4C301B20128D718160CF098
:10094000132D112399F020E030E447E655E4C3016C
:10095000B20135D6880F880B892141F02EEF34ED96
:1009600048E75FE3C301B20115D743C0192D20E06A
:1009700030E447E655E4C301B20108D718160CF07D
:10098000132D112399F020E030E646E855E4C30129
:10099000B20115D6880F880B892141F02FE73AE67E
:1009A0004CE75FE3C301B201F5D623C0192D20E067
:1009B00030E646E855E4C301B201E8D618160CF05B
:1009C000132D112399F020E030E44CE955E4C301E4
:1009D000B201F5D5880F880B892141F025E83BEE5F
:1009E00041E85FE3C301B201D5D603C060E070E027
:1009F000CB01EFE9FFE03197F1F700C00000F6010D
:100A0000222D11922A95E9F7DED5DC01CB01422D8A
:100A1000B60123D7A12CB12C6B2D8B2D40DC64E6C5
:100A20008A2D51DC8E010F5F1F4FF80181918F01DC
:100A300090ED980F9A3010F48F5201C080E384DC5F
:100A40008091E602843019F40E151F0571F78BE0D2
:100A50007BDC8BE079DC8BE077DCB394F6E0AF0EE7
:100A6000BF12DACF85E270DC8A948110A0CE2A967C
:100A70000FB6F894DEBF0FBECDBFDF91CF911F91AF
:100A80000F91FF90EF90DF90CF90BF90AF909F902D
:100A90008F907F906F905F904F903F902F90089530
:100AA000CF93DF9324DCC3EAD0E08FE24DDC2197C3
:100AB000E1F7DF91CF910895EF92FF920F931F938B
:100AC000CF93DF93CDB7DEB768970FB6F894DEBF4C
:100AD0000FBECDBF6AE58AE0F6DB63E083E0DFDBD3
:100AE0008CE0EDE8F2E0DE01119601900D928A951E
:100AF000E1F78E010F5F1F4F7E018CE0E80EF11CC5
:100B0000F80181918F018F521FDC0E151F05C1F76F
:100B100064E084E0C4DB6AE58AE0D5DB8CE0E9E9E7
:100B2000F2E0DE011D9601900D928A95E1F78E01AB
:100B3000035F1F4F7E01F8E1EF0EF11CF801819178
:100B40008F018F5201DC0E151F05C1F768960FB695
:100B5000F894DEBF0FBECDBFDF91CF911F910F91F3
:100B6000FF90EF9008951F93CF93DF93CDB7DEB73B
:100B700028970FB6F894DEBF0FBECDBF20E8280F30
:100B80001AF082E0888703C091E09887282F90ECC4
:100B9000920F1AF082E08F8303C081E08F83922F3F
:100BA00080EE890F1AF092E09E8303C081E08E836D
:100BB000892F90EF980F1AF082E08D8303C091E0A7
:100BC0009D83982F88EF890F1AF092E09C8303C0D1
:100BD00081E08C83892F9CEF980F1AF082E08B8341
:100BE00003C091E09B83982F8EEF890F1AF092E05B
:100BF0009A8303C081E08A83892F81501AF082E0B2
:100C000089830FC081E089830CC01150E1E0F0E0DE
:100C1000EC0FFD1FE10FF11D808196DB1111F5CF67
:100C200002C018E0F2CF28960FB6F894DEBF0FBED0
:100C3000CDBFDF91CF911F910895EF92FF920F9357
:100C40001F93CF93DF93CDB7DEB728970FB6F894F5
:100C5000DEBF0FBECDBF88E0E5EAF2E0DE0111960F
:100C600001900D928A95E1F761E080E018DB64E580
:100C700081E029DB8E010F5F1F4F7E0187E0E80EC8
:100C8000F11CF80181918F018F525EDB0E151F055B
:100C9000C1F728960FB6F894DEBF0FBECDBFDF9127
:100CA000CF911F910F91FF90EF900895EF92FF92D7
:100CB0000F931F93CF93DF93CDB7DEB728970FB66F
:100CC000F894DEBF0FBECDBF88E0EDEAF2E0DE01B2
:100CD000119601900D928A95E1F761E081E0DFDAEB
:100CE00064E581E0F0DA8E010F5F1F4F7E0187E03F
:100CF000E80EF11CF80181918F018F5225DB0E1552
:100D00001F05C1F728960FB6F894DEBF0FBECDBF02
:100D1000DF91CF911F910F91FF90EF900895EF9287
:100D2000FF920F931F93CF93DF93CDB7DEB7289732
:100D30000FB6F894DEBF0FBECDBF88E0E5EBF2E062
:100D4000DE01119601900D928A95E1F762E082E052
:100D5000A6DA64E581E0B7DA8E010F5F1F4F7E01EE
:100D600087E0E80EF11CF80181918F018F52ECDAD7
:100D70000E151F05C1F728960FB6F894DEBF0FBEFB
:100D8000CDBFDF91CF911F910F91FF90EF9008950C
:100D9000EF92FF920F931F93CF93DF93CDB7DEB700
:100DA00028970FB6F894DEBF0FBECDBF88E0EDEBFD
:100DB000F2E0DE01119601900D928A95E1F763E071
:100DC00083E06DDA64E581E07EDA8E010F5F1F4F0C
:100DD0007E0187E0E80EF11CF80181918F018F52AE
:100DE000B3DA0E151F05C1F728960FB6F894DEBFCB
:100DF0000FBECDBFDF91CF911F910F91FF90EF906C
:100E00000895EF92FF920F931F93CF93DF93CDB787
:100E1000DEB728970FB6F894DEBF0FBECDBF88E0CF
:100E2000E5ECF2E0DE01119601900D928A95E1F772
:100E300064E084E034DA64E581E045DA8E010F5F36
:100E40001F4F7E0187E0E80EF11CF80181918F01B0
:100E50008F527ADA0E151F05C1F728960FB6F8944F
:100E6000DEBF0FBECDBFDF91CF911F910F91FF90DD
:100E7000EF900895EF92FF920F931F93CF93DF931C
:100E8000CDB7DEB728970FB6F894DEBF0FBECDBF43
:100E900088E0EDECF2E0DE01119601900D928A956A
:100EA000E1F765E085E0FBD964E581E00CDA8E01CD
:100EB0000F5F1F4F7E0187E0E80EF11CF801819162
:100EC0008F018F5241DA0E151F05C1F728960FB614
:100ED000F894DEBF0FBECDBFDF91CF911F910F9170
:100EE000FF90EF900895EF92FF920F931F93CF938F
:100EF000DF93CDB7DEB727970FB6F894DEBF0FBEEE
:100F0000CDBF87E0E5EDF2E0DE01119601900D9294
:100F10008A95E1F766E086E0C2D964E581E0D3D93D
:100F20008E010F5F1F4F7E0187E0E80EF11CF80174
:100F300081918F018F5208DA0E151F05C1F7279690
:100F40000FB6F894DEBF0FBECDBFDF91CF911F91DA
:100F50000F91FF90EF900895EF92FF920F931F93E0
:100F6000CF93DF9300D000D000D0CDB7DEB786E0BE
:100F7000ECEDF2E0DE01119601900D928A95E1F719
:100F800067E087E08CD964E581E09DD98E010F5F31
:100F90001F4F7E0186E0E80EF11CF80181918F0160
:100FA0008F52D2D90E151F05C1F726960FB6F894A9
:100FB000DEBF0FBECDBFDF91CF911F910F91FF908C
:100FC000EF90089560E080E06AD96FE784E77BD90D
:100FD0008091E6028F5FB8D98091E6028230D0F02E
:100FE0006FE784E770D98091E6028150682F57D966
:100FF00010922D0280E3A8D980912D028F5F8093FB
:101000002D028230B8F38091E602873018F081E03B
:101010008093E6026FE784E756D98091E602682F55
:101020003ED98DE091D98EE08FD9E89A2FEF89E6ED
:1010300098E1215080409040E1F700C00000089501
:10104000CF92DF92EF92FF920F931F93CF93DF9394
:10105000CDB7DEB765970FB6F894DEBF0FBECDBF34
:1010600085E1E1E7F2E0DE01119601900D928A95AB
:10107000E1F7CE0101966C0100E00093EA020093D3
:101080000001602F802F0BD96AE688E51CD9760114
:1010900010E0F70181917F018F5256D91F5F133005
:1010A000C1F70F5FF3E0CF0ED11C073031F768D9DD
:1010B00065960FB6F894DEBF0FBECDBFDF91CF911E
:1010C0001F910F91FF90EF90DF90CF9008951F92A6
:1010D0000F920FB60F9211248F938091E9028F5FC8
:1010E0008093E9028F910F900FBE0F901F9018957B
:1010F000789489E09DE39093890080938800E1E8EB
:10110000F0E080818D608083EFE6F0E08081826096
:10111000808308953F924F925F926F927F928F9259
:101120009F92AF92BF92CF92DF92EF92FF920F9376
:101130001F93CF93DF9372D983DFBEDCD9DF809119
:10114000840090918500A12C612CCFE6D0E0CC24C6
:10115000C394BC2C1C2D8FC08C2D0E94AC008C2DF8
:101160000E9482008C2D22D8412C5CC08091E60226
:10117000823009F084C064E084E091D86AE586E4B6
:10118000A2D8A8958091E9028F5FDED8812F909137
:10119000E9029A3008F48F2D882331F0812F023034
:1011A00009F08F2D811122C088818260888380910F
:1011B000E9028A30D8F233243394300E9092E90257
:1011C0006AE580E480D882E0800FBED8812FBCD849
:1011D00086E0381659F0032D8091E9028A3058F7DD
:1011E0008091E602823009F04AC0C5CFE092E90260
:1011F0006AE584E368D88D2DA7D88E2DA5D88B2DD0
:10120000A3D88B2DA1D8D3948BE0D81611F00E2D36
:10121000E3CF43946AE58EE256D8842D95D886E0D4
:10122000481621F06894DD24D1F8F1CF53945394FB
:101230006AE582E248D8852D87D8872D85D884E055
:1012400058128ACF83946AE58CE13DD8882D7CD8EA
:1012500082E0881621F0512C9E2CFE2C7DCFA39489
:1012600065E085E01CD86AE58EE12DD88A2D6CD822
:1012700082E0A81621F0812C762CE62CECCF81E0C0
:101280000E9482001092E902DF91CF911F910F918D
:10129000FF90EF90DF90CF90BF90AF909F908F9096
:1012A0007F906F905F904F903F9008951F920F92A4
:1012B0000FB60F9211242F933F934F935F936F9329
:1012C0007F938F939F93AF93BF93EF93FF938DB3D0
:1012D0008DBB8091E6028F5F8093E6022FEF81EF56
:1012E0009BE2215080409040E1F700C000006ADEA0
:1012F000FF91EF91BF91AF919F918F917F916F91EE
:101300005F914F913F912F910F900FBE0F901F90C3
:1013100018950E94770182D890DC8DB38093EF02FC
:1013200022DCC4DC85B18093EF021DDCF8DC85B7DC
:101330008093EF0218DC2CDD84B78093EF0213DC7E
:1013400060DD809169008093EF020DDC93DD8AB14E
:101350008093EF0208DCC7DD8BB18093EF0203DCE2
:10136000FBDD8CB38093EF02FECB08958091E70202
:10137000813021F51092E7028091E602833091F0EE
:1013800028F4813049F0823051F00895853081F0A1
:1013900060F0863081F00895BCDFE99A0895BADEE6
:1013A000E99A08955DD8E99A0895D3D9E99A0895FC
:1013B00077DBE99A089532D8E99A089581E00C9490
:1013C000AC0008951F920F920FB60F9211242F9325
:1013D0003F934F935F936F937F938F939F93AF93BD
:1013E000BF93EF93FF938DB38DBB81E08093E702B2
:1013F0002FEF81EF9BE2215080409040E1F700C049
:101400000000B4DFFF91EF91BF91AF919F918F9159
:101410007F916F915F914F913F912F910F900FBEF0
:101420000F901F9018958FEF8BB98AB1837F8AB97F
:10143000E9E6F0E0808180838DB383608DBB089501
:101440008FEF84B987B98AB917B891E095B99BB97C
:1014500088B982E08093B80083E08093B9000E944D
:10146000F7000E9406010E9418018FEA80932E0265
:101470000E943C010E94180181E880932E020E9484
:101480003C010E9418018FE080932E020E943C01D3
:101490000E9418018DE880932E020E943C010E9458
:1014A000180184E180932E020E943C010E941801E1
:1014B00086EA80932E020E943C012FEF82E191E0A8
:1014C000215080409040E1F700C0000084E9809303
:1014D000BC000E94F7000E9406010E940E0285E0F7
:1014E0000E94AC00A0DF7894ABDD6CDD83E00E944D
:1014F0008200FACF5058BB27AA270ED00DC1FED0CC
:1015000030F003D120F031F49F3F11F41EF4F3C00A
:101510000EF4E095E7FBE9C0E92F0FD180F3BA178D
:10152000620773078407950718F071F49EF527C1C9
:101530000EF4E0950B2EBA2FA02D0B01B9019001EE
:101540000C01CA01A0011124FF27591B99F0593F32
:1015500050F4503E68F11A16F040A22F232F342F7A
:101560004427585FF3CF469537952795A795F040C8
:101570005395C9F77EF41F16BA0B620B730B840BDD
:10158000BAF09150A1F0FF0FBB1F661F771F881F95
:10159000C2F70EC0BA0F621F731F841F48F48795ED
:1015A00077956795B795F7959E3F08F0B3CF9395DC
:1015B000880F08F09927EE0F97958795089571D0B9
:1015C00008F481E0089504D06894B111D9C0089559
:1015D000BCD088F09F5790F0B92F9927B751A0F051
:1015E000D1F0660F771F881F991F1AF0BA95C9F7B7
:1015F00012C0B13081F0C3D0B1E00895C0C0672FF0
:10160000782F8827B85F39F0B93FCCF38695779566
:101610006795B395D9F73EF490958095709561954F
:101620007F4F8F4F9F4F0895E89409C097FB3EF47A
:1016300090958095709561957F4F8F4F9F4F99231F
:10164000A9F0F92F96E9BB279395F695879577959D
:101650006795B795F111F8CFFAF4BB0F11F460FF5D
:101660001BC06F5F7F4F8F4F9F4F16C0882311F0B5
:1016700096E911C0772321F09EE8872F762F05C0C9
:10168000662371F096E8862F70E060E02AF09A9564
:10169000660F771F881FDAF7880F9695879597F959
:1016A0000895990F0008550FAA0BE0E8FEEF1616F3
:1016B0001706E807F907C0F012161306E407F50746
:1016C00098F0621B730B840B950B39F40A2661F0BA
:1016D000232B242B252B21F408950A2609F4A1405D
:1016E000A6958FEF811D811D089597F99F6780E86A
:1016F00070E060E008959FEF80EC089500240A9464
:101700001616170618060906089500240A941216DC
:101710001306140605060895092E0394000C11F40F
:10172000882352F0BB0F40F4BF2B11F460FF04C0BC
:101730006F5F7F4F8F4F9F4F089557FD9058440F15
:10174000551F59F05F3F71F04795880F97FB991F20
:1017500061F09F3F79F087950895121613061406DD
:10176000551FF2CF4695F1DF08C01616170618066A
:10177000991FF1CF86957105610508940895E89445
:10178000BB2766277727CB0197F908958ADF08F4EE
:101790008FEF08950BD0C0CFB1DF28F0B6DF18F07F
:1017A000952309F0A2CFA7CF1124EACFC6DFA0F37B
:1017B000959FD1F3950F50E0551F629FF001729FE6
:1017C000BB27F00DB11D639FAA27F00DB11DAA1F05
:1017D000649F6627B00DA11D661F829F2227B00D52
:1017E000A11D621F739FB00DA11D621F839FA00DDD
:1017F000611D221F749F3327A00D611D231F849F2D
:10180000600D211D822F762F6A2F11249F57504083
:101810008AF0E1F088234AF0EE0FFF1FBB1F661F1E
:10182000771F881F91505040A9F79E3F510570F0D7
:101830005CCFA6CF5F3FECF3983EDCF386957795BF
:101840006795B795F795E7959F5FC1F7FE2B880FD2
:10185000911D9695879597F90895BB274A3031F4E5
:10186000992322F4BDE2909581959F4F01C0BB273B
:10187000FB015527AA27880F991FAA1FA41710F04C
:10188000A41B83955051B9F7A05DAA3308F0A95D58
:10189000A193009779F7B111B1931192CB0100C0D8
:1018A000DC01FC01672F71917723E1F7329704C0C7
:1018B0007C916D9370836291AE17BF07C8F3089552
:0418C000F894FFCFCA
:1018C40007000036360000003E5149453E00004204
:1018D4007F4000004261514946002141454B31009F
:1018E4001814127F10002745454539003C4A4949E0
:1018F400300001710905030036494949360006499B
:1019040049291E00006060000000005636000000F7
:101914000814224100001414141414000041221469
:101924000800020151090600324959513E007C1257
:1019340011127C007F49494936003E414141220051
:101944007F4141221C007F49494941007F0909091F
:1019540001003E4149497A007F0808087F000041A0
:101964007F4100002040413F01007F0814224100D4
:101974007F40404040007F020C027F007F0408103B
:101984007F003E4141413E007F09090906003E4176
:1019940051215E007F091929460046494949310011
:1019A40001017F0101003F4040403F001F204020D3
:1019B4001F003F4038403F006314081463000708C9
:1019C40070080700615149454300007F4141000010
:1019D400552A552A55000041417F00FFFFFFFFFFB4
:1019E400FF0000000000000008083E080801AF5393
:1019F400554E44415900000000004D4F4E4441599A
:101A040000000000005455455344415900000000B3
:101A14005745444E45534441590000544855525388
:101A24004441590000004652494441590000000015
:101A3400004C494E52454753545741444341445442
:101A4400524E44434C5356303A303A300044443AB0
:101A540048483A4D4D3A53530030302E30302E30F2
:101A6400302E30300045494D534B3A3A00504F52D6
:101A740054423A3A004D435543523A3A004D435585
:101A840053523A3A0045494352413A3A0044445287
:101A9400443A3A3A00504F5254443A004549465267
:021AA4003A0006
:00000001FF
